{
  "_format": "hh-sol-artifact-1",
  "contractName": "Election",
  "sourceName": "contracts/election.sol",
  "abi": [
    {
      "inputs": [],
      "stateMutability": "nonpayable",
      "type": "constructor"
    },
    {
      "anonymous": false,
      "inputs": [
        {
          "indexed": false,
          "internalType": "bytes32",
          "name": "voteOption",
          "type": "bytes32"
        }
      ],
      "name": "addedVoteOption",
      "type": "event"
    },
    {
      "anonymous": false,
      "inputs": [
        {
          "indexed": false,
          "internalType": "uint256",
          "name": "electionId",
          "type": "uint256"
        },
        {
          "indexed": false,
          "internalType": "bytes32",
          "name": "eventName",
          "type": "bytes32"
        },
        {
          "indexed": false,
          "internalType": "address",
          "name": "electionCreator",
          "type": "address"
        },
        {
          "indexed": false,
          "internalType": "address",
          "name": "electionAddress",
          "type": "address"
        }
      ],
      "name": "newElectionCreated",
      "type": "event"
    },
    {
      "anonymous": false,
      "inputs": [
        {
          "indexed": false,
          "internalType": "address",
          "name": "voter",
          "type": "address"
        },
        {
          "indexed": false,
          "internalType": "bytes32",
          "name": "voteOption",
          "type": "bytes32"
        }
      ],
      "name": "newVote",
      "type": "event"
    },
    {
      "anonymous": false,
      "inputs": [
        {
          "indexed": false,
          "internalType": "address[]",
          "name": "voterAddress",
          "type": "address[]"
        }
      ],
      "name": "newVoterAdded",
      "type": "event"
    },
    {
      "anonymous": false,
      "inputs": [
        {
          "indexed": false,
          "internalType": "address",
          "name": "voterAddress",
          "type": "address"
        }
      ],
      "name": "voterRemoved",
      "type": "event"
    },
    {
      "inputs": [
        {
          "internalType": "bytes32[]",
          "name": "newOptions",
          "type": "bytes32[]"
        }
      ],
      "name": "addVoteOptions",
      "outputs": [],
      "stateMutability": "nonpayable",
      "type": "function"
    },
    {
      "inputs": [],
      "name": "allElections",
      "outputs": [
        {
          "components": [
            {
              "internalType": "uint256",
              "name": "electionId",
              "type": "uint256"
            },
            {
              "internalType": "bytes32",
              "name": "electioName",
              "type": "bytes32"
            },
            {
              "internalType": "address",
              "name": "electionCreator",
              "type": "address"
            },
            {
              "internalType": "address",
              "name": "electionAddress",
              "type": "address"
            }
          ],
          "internalType": "struct Election.electionInfo[]",
          "name": "",
          "type": "tuple[]"
        }
      ],
      "stateMutability": "view",
      "type": "function"
    },
    {
      "inputs": [
        {
          "internalType": "uint256",
          "name": "",
          "type": "uint256"
        }
      ],
      "name": "allowedVoters",
      "outputs": [
        {
          "internalType": "address",
          "name": "",
          "type": "address"
        }
      ],
      "stateMutability": "view",
      "type": "function"
    },
    {
      "inputs": [
        {
          "internalType": "bytes32",
          "name": "option",
          "type": "bytes32"
        }
      ],
      "name": "castVote",
      "outputs": [],
      "stateMutability": "nonpayable",
      "type": "function"
    },
    {
      "inputs": [
        {
          "internalType": "bytes32",
          "name": "_electionName",
          "type": "bytes32"
        }
      ],
      "name": "createElection",
      "outputs": [
        {
          "internalType": "address",
          "name": "_electionAddress",
          "type": "address"
        }
      ],
      "stateMutability": "nonpayable",
      "type": "function"
    },
    {
      "inputs": [],
      "name": "electionCount",
      "outputs": [
        {
          "internalType": "uint256",
          "name": "",
          "type": "uint256"
        }
      ],
      "stateMutability": "view",
      "type": "function"
    },
    {
      "inputs": [],
      "name": "electionCreator",
      "outputs": [
        {
          "internalType": "address",
          "name": "",
          "type": "address"
        }
      ],
      "stateMutability": "view",
      "type": "function"
    },
    {
      "inputs": [
        {
          "internalType": "address",
          "name": "",
          "type": "address"
        }
      ],
      "name": "electionDetails",
      "outputs": [
        {
          "internalType": "uint256",
          "name": "electionId",
          "type": "uint256"
        },
        {
          "internalType": "bytes32",
          "name": "electioName",
          "type": "bytes32"
        },
        {
          "internalType": "address",
          "name": "electionCreator",
          "type": "address"
        },
        {
          "internalType": "address",
          "name": "electionAddress",
          "type": "address"
        }
      ],
      "stateMutability": "view",
      "type": "function"
    },
    {
      "inputs": [
        {
          "internalType": "uint256",
          "name": "",
          "type": "uint256"
        }
      ],
      "name": "electionIdToDetails",
      "outputs": [
        {
          "internalType": "uint256",
          "name": "electionId",
          "type": "uint256"
        },
        {
          "internalType": "bytes32",
          "name": "electioName",
          "type": "bytes32"
        },
        {
          "internalType": "address",
          "name": "electionCreator",
          "type": "address"
        },
        {
          "internalType": "address",
          "name": "electionAddress",
          "type": "address"
        }
      ],
      "stateMutability": "view",
      "type": "function"
    },
    {
      "inputs": [],
      "name": "electionName",
      "outputs": [
        {
          "internalType": "bytes32",
          "name": "",
          "type": "bytes32"
        }
      ],
      "stateMutability": "view",
      "type": "function"
    },
    {
      "inputs": [],
      "name": "getElectionCount",
      "outputs": [
        {
          "internalType": "uint256",
          "name": "_electionCount",
          "type": "uint256"
        }
      ],
      "stateMutability": "view",
      "type": "function"
    },
    {
      "inputs": [
        {
          "internalType": "address",
          "name": "_electionAddress",
          "type": "address"
        }
      ],
      "name": "getElectionDetails",
      "outputs": [
        {
          "components": [
            {
              "internalType": "uint256",
              "name": "electionId",
              "type": "uint256"
            },
            {
              "internalType": "bytes32",
              "name": "electioName",
              "type": "bytes32"
            },
            {
              "internalType": "address",
              "name": "electionCreator",
              "type": "address"
            },
            {
              "internalType": "address",
              "name": "electionAddress",
              "type": "address"
            }
          ],
          "internalType": "struct Election.electionInfo",
          "name": "",
          "type": "tuple"
        }
      ],
      "stateMutability": "view",
      "type": "function"
    },
    {
      "inputs": [],
      "name": "getElectionDetails",
      "outputs": [
        {
          "internalType": "bytes32",
          "name": "",
          "type": "bytes32"
        },
        {
          "internalType": "address",
          "name": "",
          "type": "address"
        }
      ],
      "stateMutability": "view",
      "type": "function"
    },
    {
      "inputs": [],
      "name": "getElectionWinner",
      "outputs": [
        {
          "internalType": "bytes32",
          "name": "",
          "type": "bytes32"
        }
      ],
      "stateMutability": "view",
      "type": "function"
    },
    {
      "inputs": [
        {
          "internalType": "bytes32",
          "name": "option",
          "type": "bytes32"
        }
      ],
      "name": "getVoteOptionVoteCount",
      "outputs": [
        {
          "internalType": "uint256",
          "name": "",
          "type": "uint256"
        }
      ],
      "stateMutability": "view",
      "type": "function"
    },
    {
      "inputs": [],
      "name": "getVotes",
      "outputs": [
        {
          "components": [
            {
              "internalType": "address",
              "name": "validVoter",
              "type": "address"
            },
            {
              "internalType": "uint256",
              "name": "votedFor",
              "type": "uint256"
            }
          ],
          "internalType": "struct Voting.voterAndVotes[]",
          "name": "",
          "type": "tuple[]"
        }
      ],
      "stateMutability": "view",
      "type": "function"
    },
    {
      "inputs": [],
      "name": "myElections",
      "outputs": [
        {
          "components": [
            {
              "internalType": "uint256",
              "name": "electionId",
              "type": "uint256"
            },
            {
              "internalType": "bytes32",
              "name": "electioName",
              "type": "bytes32"
            },
            {
              "internalType": "address",
              "name": "electionCreator",
              "type": "address"
            },
            {
              "internalType": "address",
              "name": "electionAddress",
              "type": "address"
            }
          ],
          "internalType": "struct Election.electionInfo[]",
          "name": "",
          "type": "tuple[]"
        },
        {
          "internalType": "uint256",
          "name": "",
          "type": "uint256"
        }
      ],
      "stateMutability": "view",
      "type": "function"
    },
    {
      "inputs": [],
      "name": "owner",
      "outputs": [
        {
          "internalType": "address",
          "name": "",
          "type": "address"
        }
      ],
      "stateMutability": "view",
      "type": "function"
    },
    {
      "inputs": [
        {
          "internalType": "address[]",
          "name": "newVoter",
          "type": "address[]"
        }
      ],
      "name": "registerVoter",
      "outputs": [],
      "stateMutability": "nonpayable",
      "type": "function"
    },
    {
      "inputs": [
        {
          "internalType": "bytes32",
          "name": "_electionName",
          "type": "bytes32"
        }
      ],
      "name": "setElectionDetails",
      "outputs": [
        {
          "internalType": "bytes32",
          "name": "",
          "type": "bytes32"
        },
        {
          "internalType": "address",
          "name": "",
          "type": "address"
        }
      ],
      "stateMutability": "nonpayable",
      "type": "function"
    },
    {
      "inputs": [
        {
          "internalType": "address",
          "name": "voter",
          "type": "address"
        }
      ],
      "name": "unregisterVoter",
      "outputs": [],
      "stateMutability": "nonpayable",
      "type": "function"
    },
    {
      "inputs": [
        {
          "internalType": "uint256",
          "name": "_index",
          "type": "uint256"
        }
      ],
      "name": "viewElectionAddress",
      "outputs": [
        {
          "internalType": "address",
          "name": "_electionAddress",
          "type": "address"
        }
      ],
      "stateMutability": "view",
      "type": "function"
    },
    {
      "inputs": [],
      "name": "viewLastDeployedElection",
      "outputs": [
        {
          "internalType": "address",
          "name": "_electionAddress",
          "type": "address"
        }
      ],
      "stateMutability": "view",
      "type": "function"
    },
    {
      "inputs": [],
      "name": "viewVoteOptions",
      "outputs": [
        {
          "internalType": "bytes32[]",
          "name": "",
          "type": "bytes32[]"
        }
      ],
      "stateMutability": "view",
      "type": "function"
    },
    {
      "inputs": [],
      "name": "viewVoters",
      "outputs": [
        {
          "internalType": "address[]",
          "name": "",
          "type": "address[]"
        }
      ],
      "stateMutability": "view",
      "type": "function"
    },
    {
      "inputs": [
        {
          "internalType": "uint256",
          "name": "",
          "type": "uint256"
        }
      ],
      "name": "voteOptions",
      "outputs": [
        {
          "internalType": "bytes32",
          "name": "",
          "type": "bytes32"
        }
      ],
      "stateMutability": "view",
      "type": "function"
    },
    {
      "inputs": [
        {
          "internalType": "address",
          "name": "",
          "type": "address"
        }
      ],
      "name": "voters",
      "outputs": [
        {
          "internalType": "bool",
          "name": "",
          "type": "bool"
        }
      ],
      "stateMutability": "view",
      "type": "function"
    },
    {
      "inputs": [
        {
          "internalType": "address",
          "name": "",
          "type": "address"
        }
      ],
      "name": "votes",
      "outputs": [
        {
          "internalType": "uint256",
          "name": "",
          "type": "uint256"
        }
      ],
      "stateMutability": "view",
      "type": "function"
    }
  ],
  "bytecode": "0x608060405234801561001057600080fd5b50600033336000806101000a81548173ffffffffffffffffffffffffffffffffffffffff021916908373ffffffffffffffffffffffffffffffffffffffff1602179055508160018190555080600260006101000a81548173ffffffffffffffffffffffffffffffffffffffff021916908373ffffffffffffffffffffffffffffffffffffffff16021790555050506000600781905550615f69806100b56000396000f3fe60806040523480156200001157600080fd5b5060043610620001f05760003560e01c80638da5cb5b1162000111578063d008426c11620000a5578063eb954625116200007b578063eb95462514620005ed578063ed836bc3146200060f578063f36f4ff01462000632578063faaef9b8146200065457620001f0565b8063d008426c1462000575578063d8bff5a51462000595578063dfec13a514620005cb57620001f0565b80639aec686711620000e75780639aec6867146200049a5780639f2f441c14620004d0578063a3ec138d1462000506578063b173c7de146200053c57620001f0565b80638da5cb5b14620004345780639346a95e1462000456578063997d2830146200047857620001f0565b80634704d8ec116200018957806366b6e859116200015f57806366b6e85914620003af57806378fbaeac14620003d25780637ed1775114620003f257806385e8e7a7146200041257620001f0565b80634704d8ec146200030d5780634c54f0dc1462000343578063523fc945146200037957620001f0565b8063257547b311620001cb578063257547b314620002705780633232a62e1462000292578063379b721d14620002cb5780633efafb6e14620002ed57620001f0565b80630757ad0114620001f55780630dc96015146200022c578063213785a0146200024e575b600080fd5b6200021360048036038101906200020d919062002773565b6200068a565b60405162000223929190620027fb565b60405180910390f35b62000236620007ee565b60405162000245919062002944565b60405180910390f35b6200025862000ad8565b60405162000267919062002979565b60405180910390f35b6200027a62000ae2565b60405162000289919062002996565b60405180910390f35b620002b06004803603810190620002aa9190620029e4565b62000d22565b604051620002c2949392919062002a16565b60405180910390f35b620002d562000d92565b604051620002e4919062002b8e565b60405180910390f35b6200030b600480360381019062000305919062002773565b62000f4d565b005b6200032b6004803603810190620003259190620029e4565b620011e7565b6040516200033a919062002996565b60405180910390f35b6200036160048036038101906200035b9190620029e4565b6200120c565b60405162000370919062002bb2565b60405180910390f35b62000397600480360381019062000391919062002773565b62001249565b604051620003a6919062002979565b60405180910390f35b620003b96200142a565b604051620003c992919062002bcf565b60405180910390f35b620003f06004803603810190620003ea919062002da9565b620016eb565b005b6200041060048036038101906200040a919062002dfa565b62001984565b005b6200041c62001cf5565b6040516200042b919062002996565b60405180910390f35b6200043e62001cfb565b6040516200044d919062002bb2565b60405180910390f35b6200046062001d1f565b6040516200046f919062002ee9565b60405180910390f35b6200048262001daf565b60405162000491919062002979565b60405180910390f35b620004b86004803603810190620004b2919062002773565b62001db5565b604051620004c7919062002bb2565b60405180910390f35b620004ee6004803603810190620004e8919062002dfa565b620020e9565b604051620004fd919062002f6a565b60405180910390f35b6200052460048036038101906200051e919062002dfa565b6200220a565b60405162000533919062002fa4565b60405180910390f35b6200055a600480360381019062000554919062002dfa565b6200222a565b6040516200056c949392919062002a16565b60405180910390f35b6200059360048036038101906200058d919062003097565b6200229a565b005b620005b36004803603810190620005ad919062002dfa565b620023d3565b604051620005c2919062002979565b60405180910390f35b620005d5620023eb565b604051620005e4919062002bb2565b60405180910390f35b620005f762002428565b604051620006069190620031a5565b60405180910390f35b6200061962002482565b60405162000629929190620027fb565b60405180910390f35b6200063c620024b3565b6040516200064b919062002bb2565b60405180910390f35b6200067260048036038101906200066c9190620029e4565b620024d9565b60405162000681919062002bb2565b60405180910390f35b60008060008054906101000a900473ffffffffffffffffffffffffffffffffffffffff1673ffffffffffffffffffffffffffffffffffffffff163373ffffffffffffffffffffffffffffffffffffffff161480620007355750600260009054906101000a900473ffffffffffffffffffffffffffffffffffffffff1673ffffffffffffffffffffffffffffffffffffffff163373ffffffffffffffffffffffffffffffffffffffff16145b62000777576040517f08c379a00000000000000000000000000000000000000000000000000000000081526004016200076e906200322a565b60405180910390fd5b8260018190555033600260006101000a81548173ffffffffffffffffffffffffffffffffffffffff021916908373ffffffffffffffffffffffffffffffffffffffff160217905550600154600260009054906101000a900473ffffffffffffffffffffffffffffffffffffffff1691509150915091565b60606000805b600680549050811015620008c3576001151560036000600684815481106200082157620008206200324c565b5b9060005260206000200160009054906101000a900473ffffffffffffffffffffffffffffffffffffffff1673ffffffffffffffffffffffffffffffffffffffff1673ffffffffffffffffffffffffffffffffffffffff16815260200190815260200160002060009054906101000a900460ff16151503620008ad578180620008a990620032aa565b9250505b8080620008ba90620032aa565b915050620007f4565b5060008167ffffffffffffffff811115620008e357620008e262002c19565b5b6040519080825280602002602001820160405280156200092057816020015b6200090c62002672565b815260200190600190039081620009025790505b5090506000805b60068054905081101562000ace576001151560036000600684815481106200095457620009536200324c565b5b9060005260206000200160009054906101000a900473ffffffffffffffffffffffffffffffffffffffff1673ffffffffffffffffffffffffffffffffffffffff1673ffffffffffffffffffffffffffffffffffffffff16815260200190815260200160002060009054906101000a900460ff1615150362000ab857600060068281548110620009e857620009e76200324c565b5b9060005260206000200160009054906101000a900473ffffffffffffffffffffffffffffffffffffffff1690506000600460008373ffffffffffffffffffffffffffffffffffffffff1673ffffffffffffffffffffffffffffffffffffffff16815260200190815260200160002054905060405180604001604052808373ffffffffffffffffffffffffffffffffffffffff1681526020018281525085858151811062000a9a5762000a996200324c565b5b6020026020010181905250838062000ab290620032aa565b94505050505b808062000ac590620032aa565b91505062000927565b5081935050505090565b6000600754905090565b60008060058054905067ffffffffffffffff81111562000b075762000b0662002c19565b5b60405190808252806020026020018201604052801562000b4457816020015b62000b30620026a2565b81526020019060019003908162000b265790505b5090506000805b60058054905081101562000c0d5760006005828154811062000b725762000b716200324c565b5b90600052602060002001549050600062000bad6005848154811062000b9c5762000b9b6200324c565b5b906000526020600020015462001249565b905060405180604001604052808381526020018281525085858151811062000bda5762000bd96200324c565b5b6020026020010181905250838062000bf290620032aa565b9450505050808062000c0490620032aa565b91505062000b4b565b506000806000805b855181101562000ce0578286828151811062000c365762000c356200324c565b5b602002602001015160200151111562000c9b5785818151811062000c5f5762000c5e6200324c565b5b602002602001015160200151925085818151811062000c835762000c826200324c565b5b60200260200101516000015193506000915062000cca565b8286828151811062000cb25762000cb16200324c565b5b6020026020010151602001510362000cc957600191505b5b808062000cd790620032aa565b91505062000c15565b50801562000d16577f546965206265747765656e20746f7020766f7465206f7074696f6e73000000009550505050505062000d1f565b82955050505050505b90565b600a6020528060005260406000206000915090508060000154908060010154908060020160009054906101000a900473ffffffffffffffffffffffffffffffffffffffff16908060030160009054906101000a900473ffffffffffffffffffffffffffffffffffffffff16905084565b606060008060075467ffffffffffffffff81111562000db65762000db562002c19565b5b60405190808252806020026020018201604052801562000df357816020015b62000ddf620026bf565b81526020019060019003908162000dd55790505b50905060005b60075481101562000f4457600060018262000e159190620032f7565b90506000600a600083815260200190815260200160002090508060405180608001604052908160008201548152602001600182015481526020016002820160009054906101000a900473ffffffffffffffffffffffffffffffffffffffff1673ffffffffffffffffffffffffffffffffffffffff1673ffffffffffffffffffffffffffffffffffffffff1681526020016003820160009054906101000a900473ffffffffffffffffffffffffffffffffffffffff1673ffffffffffffffffffffffffffffffffffffffff1673ffffffffffffffffffffffffffffffffffffffff168152505084868151811062000f105762000f0f6200324c565b5b602002602001018190525060018562000f2a9190620032f7565b94505050808062000f3b90620032aa565b91505062000df9565b50809250505090565b600360003373ffffffffffffffffffffffffffffffffffffffff1673ffffffffffffffffffffffffffffffffffffffff16815260200190815260200160002060009054906101000a900460ff1662000fdc576040517f08c379a000000000000000000000000000000000000000000000000000000000815260040162000fd39062003382565b60405180910390fd5b6000600460003373ffffffffffffffffffffffffffffffffffffffff1673ffffffffffffffffffffffffffffffffffffffff168152602001908152602001600020541462001061576040517f08c379a00000000000000000000000000000000000000000000000000000000081526004016200105890620033f4565b60405180910390fd5b73__$de54dc1c421adc6f0c4b61e1985e2a322a$__63934fc0a16005836040518363ffffffff1660e01b81526004016200109d9291906200354d565b60006040518083038186803b158015620010b657600080fd5b505af4158015620010cb573d6000803e3d6000fd5b50505050600073__$de54dc1c421adc6f0c4b61e1985e2a322a$__634c538c096005846040518363ffffffff1660e01b81526004016200110d9291906200354d565b602060405180830381865af41580156200112b573d6000803e3d6000fd5b505050506040513d601f19601f82011682018060405250810190620011519190620035bf565b60ff169050600181620011659190620032f7565b600460003373ffffffffffffffffffffffffffffffffffffffff1673ffffffffffffffffffffffffffffffffffffffff168152602001908152602001600020819055507ff4b7aab1c8e15149749c8399aba797e078e2caa0a35510c6424240e0d985f7423383604051620011db929190620035f1565b60405180910390a15050565b60058181548110620011f857600080fd5b906000526020600020016000915090505481565b60006008600083815260200190815260200160002060009054906101000a900473ffffffffffffffffffffffffffffffffffffffff169050919050565b600073__$de54dc1c421adc6f0c4b61e1985e2a322a$__63934fc0a16005846040518363ffffffff1660e01b8152600401620012879291906200354d565b60006040518083038186803b158015620012a057600080fd5b505af4158015620012b5573d6000803e3d6000fd5b50505050600073__$de54dc1c421adc6f0c4b61e1985e2a322a$__634c538c096005856040518363ffffffff1660e01b8152600401620012f79291906200354d565b602060405180830381865af415801562001315573d6000803e3d6000fd5b505050506040513d601f19601f820116820180604052508101906200133b9190620035bf565b60ff1690506001816200134f9190620032f7565b506000805b6006805490508110156200141f57600183620013719190620032f7565b60046000600684815481106200138c576200138b6200324c565b5b9060005260206000200160009054906101000a900473ffffffffffffffffffffffffffffffffffffffff1673ffffffffffffffffffffffffffffffffffffffff1673ffffffffffffffffffffffffffffffffffffffff1681526020019081526020016000205403620014095781806200140590620032aa565b9250505b80806200141690620032aa565b91505062001354565b508092505050919050565b6060600080600090506000805b6007548111620014d3573373ffffffffffffffffffffffffffffffffffffffff16600a600083815260200190815260200160002060020160009054906101000a900473ffffffffffffffffffffffffffffffffffffffff1673ffffffffffffffffffffffffffffffffffffffff1603620014bd57600183620014ba9190620032f7565b92505b8080620014ca90620032aa565b91505062001437565b5060008267ffffffffffffffff811115620014f357620014f262002c19565b5b6040519080825280602002602001820160405280156200153057816020015b6200151c620026bf565b815260200190600190039081620015125790505b50905060005b6007548111620016dd573373ffffffffffffffffffffffffffffffffffffffff16600a600083815260200190815260200160002060020160009054906101000a900473ffffffffffffffffffffffffffffffffffffffff1673ffffffffffffffffffffffffffffffffffffffff1603620016c75760008190506000600a600083815260200190815260200160002090508060405180608001604052908160008201548152602001600182015481526020016002820160009054906101000a900473ffffffffffffffffffffffffffffffffffffffff1673ffffffffffffffffffffffffffffffffffffffff1673ffffffffffffffffffffffffffffffffffffffff1681526020016003820160009054906101000a900473ffffffffffffffffffffffffffffffffffffffff1673ffffffffffffffffffffffffffffffffffffffff1673ffffffffffffffffffffffffffffffffffffffff1681525050848681518110620016a857620016a76200324c565b5b6020026020010181905250600185620016c29190620032f7565b945050505b8080620016d490620032aa565b91505062001536565b508083945094505050509091565b60008054906101000a900473ffffffffffffffffffffffffffffffffffffffff1673ffffffffffffffffffffffffffffffffffffffff163373ffffffffffffffffffffffffffffffffffffffff161480620017935750600260009054906101000a900473ffffffffffffffffffffffffffffffffffffffff1673ffffffffffffffffffffffffffffffffffffffff163373ffffffffffffffffffffffffffffffffffffffff16145b620017d5576040517f08c379a0000000000000000000000000000000000000000000000000000000008152600401620017cc906200322a565b60405180910390fd5b60005b8151811015620019475760036000838381518110620017fc57620017fb6200324c565b5b602002602001015173ffffffffffffffffffffffffffffffffffffffff1673ffffffffffffffffffffffffffffffffffffffff16815260200190815260200160002060009054906101000a900460ff16620018f4576001600360008484815181106200186d576200186c6200324c565b5b602002602001015173ffffffffffffffffffffffffffffffffffffffff1673ffffffffffffffffffffffffffffffffffffffff16815260200190815260200160002060006101000a81548160ff021916908315150217905550620018ee828281518110620018e057620018df6200324c565b5b602002602001015162002519565b62001931565b6040517f08c379a000000000000000000000000000000000000000000000000000000000815260040162001928906200366e565b60405180910390fd5b80806200193e90620032aa565b915050620017d8565b507fa23088639b8870418f6efa6c948c63361f430f913c5343d271e0ee29f60aaa2a8160405162001979919062002ee9565b60405180910390a150565b60008054906101000a900473ffffffffffffffffffffffffffffffffffffffff1673ffffffffffffffffffffffffffffffffffffffff163373ffffffffffffffffffffffffffffffffffffffff16148062001a2c5750600260009054906101000a900473ffffffffffffffffffffffffffffffffffffffff1673ffffffffffffffffffffffffffffffffffffffff163373ffffffffffffffffffffffffffffffffffffffff16145b62001a6e576040517f08c379a000000000000000000000000000000000000000000000000000000000815260040162001a65906200322a565b60405180910390fd5b600360008273ffffffffffffffffffffffffffffffffffffffff1673ffffffffffffffffffffffffffffffffffffffff16815260200190815260200160002060009054906101000a900460ff1662001ac557600080fd5b6000600360008373ffffffffffffffffffffffffffffffffffffffff1673ffffffffffffffffffffffffffffffffffffffff16815260200190815260200160002060006101000a81548160ff02191690831515021790555060005b60068054905081101562001cb8578173ffffffffffffffffffffffffffffffffffffffff166006828154811062001b5c5762001b5b6200324c565b5b9060005260206000200160009054906101000a900473ffffffffffffffffffffffffffffffffffffffff1673ffffffffffffffffffffffffffffffffffffffff160362001ca2576006600160068054905062001bb9919062003690565b8154811062001bcd5762001bcc6200324c565b5b9060005260206000200160009054906101000a900473ffffffffffffffffffffffffffffffffffffffff166006828154811062001c0f5762001c0e6200324c565b5b9060005260206000200160006101000a81548173ffffffffffffffffffffffffffffffffffffffff021916908373ffffffffffffffffffffffffffffffffffffffff160217905550600680548062001c6c5762001c6b620036cb565b5b6001900381819060005260206000200160006101000a81549073ffffffffffffffffffffffffffffffffffffffff021916905590555b808062001caf90620032aa565b91505062001b20565b507feb73c070e497672efd6ec8d28c7d42094c17cf80d13d9dab4766e5b97017a6f48160405162001cea919062002bb2565b60405180910390a150565b60015481565b60008054906101000a900473ffffffffffffffffffffffffffffffffffffffff1681565b6060600680548060200260200160405190810160405280929190818152602001828054801562001da557602002820191906000526020600020905b8160009054906101000a900473ffffffffffffffffffffffffffffffffffffffff1673ffffffffffffffffffffffffffffffffffffffff168152602001906001019080831162001d5a575b5050505050905090565b60075481565b600080823360405162001dc89062002716565b62001dd5929190620027fb565b604051809103906000f08015801562001df2573d6000803e3d6000fd5b5090506007600081548092919062001e0a90620032aa565b91905055508060086000600754815260200190815260200160002060006101000a81548173ffffffffffffffffffffffffffffffffffffffff021916908373ffffffffffffffffffffffffffffffffffffffff160217905550809150604051806080016040528060075481526020018481526020013373ffffffffffffffffffffffffffffffffffffffff1681526020018373ffffffffffffffffffffffffffffffffffffffff16815250600960008473ffffffffffffffffffffffffffffffffffffffff1673ffffffffffffffffffffffffffffffffffffffff168152602001908152602001600020600082015181600001556020820151816001015560408201518160020160006101000a81548173ffffffffffffffffffffffffffffffffffffffff021916908373ffffffffffffffffffffffffffffffffffffffff16021790555060608201518160030160006101000a81548173ffffffffffffffffffffffffffffffffffffffff021916908373ffffffffffffffffffffffffffffffffffffffff160217905550905050604051806080016040528060075481526020018481526020013373ffffffffffffffffffffffffffffffffffffffff1681526020018373ffffffffffffffffffffffffffffffffffffffff16815250600a60006007548152602001908152602001600020600082015181600001556020820151816001015560408201518160020160006101000a81548173ffffffffffffffffffffffffffffffffffffffff021916908373ffffffffffffffffffffffffffffffffffffffff16021790555060608201518160030160006101000a81548173ffffffffffffffffffffffffffffffffffffffff021916908373ffffffffffffffffffffffffffffffffffffffff1602179055509050507f099f95fb1e162432c11744bf7b727bc06df1ac94f3ee13b5dc9f31dbc15e9257600754843385604051620020db949392919062002a16565b60405180910390a150919050565b620020f3620026bf565b6000600960008473ffffffffffffffffffffffffffffffffffffffff1673ffffffffffffffffffffffffffffffffffffffff16815260200190815260200160002060405180608001604052908160008201548152602001600182015481526020016002820160009054906101000a900473ffffffffffffffffffffffffffffffffffffffff1673ffffffffffffffffffffffffffffffffffffffff1673ffffffffffffffffffffffffffffffffffffffff1681526020016003820160009054906101000a900473ffffffffffffffffffffffffffffffffffffffff1673ffffffffffffffffffffffffffffffffffffffff1673ffffffffffffffffffffffffffffffffffffffff1681525050905080915050919050565b60036020528060005260406000206000915054906101000a900460ff1681565b60096020528060005260406000206000915090508060000154908060010154908060020160009054906101000a900473ffffffffffffffffffffffffffffffffffffffff16908060030160009054906101000a900473ffffffffffffffffffffffffffffffffffffffff16905084565b60008054906101000a900473ffffffffffffffffffffffffffffffffffffffff1673ffffffffffffffffffffffffffffffffffffffff163373ffffffffffffffffffffffffffffffffffffffff161480620023425750600260009054906101000a900473ffffffffffffffffffffffffffffffffffffffff1673ffffffffffffffffffffffffffffffffffffffff163373ffffffffffffffffffffffffffffffffffffffff16145b62002384576040517f08c379a00000000000000000000000000000000000000000000000000000000081526004016200237b906200322a565b60405180910390fd5b60005b8151811015620023cf57620023b9828281518110620023ab57620023aa6200324c565b5b60200260200101516200257f565b8080620023c690620032aa565b91505062002387565b5050565b60046020528060005260406000206000915090505481565b600060086000600754815260200190815260200160002060009054906101000a900473ffffffffffffffffffffffffffffffffffffffff16905090565b606060058054806020026020016040519081016040528092919081815260200182805480156200247857602002820191906000526020600020905b81548152602001906001019080831162002463575b5050505050905090565b600080600154600260009054906101000a900473ffffffffffffffffffffffffffffffffffffffff16915091509091565b600260009054906101000a900473ffffffffffffffffffffffffffffffffffffffff1681565b60068181548110620024ea57600080fd5b906000526020600020016000915054906101000a900473ffffffffffffffffffffffffffffffffffffffff1681565b6006819080600181540180825580915050600190039060005260206000200160009091909190916101000a81548173ffffffffffffffffffffffffffffffffffffffff021916908373ffffffffffffffffffffffffffffffffffffffff16021790555050565b60005b6005805490508110156200260c578160058281548110620025a857620025a76200324c565b5b906000526020600020015403620025f6576040517f08c379a0000000000000000000000000000000000000000000000000000000008152600401620025ed906200374a565b60405180910390fd5b80806200260390620032aa565b91505062002582565b5060058190806001815401808255809150506001900390600052602060002001600090919091909150557fcc50179f97952c8701ac18fe314dd07ed718967ff75bf2d22230a450d619e0658160405162002667919062002996565b60405180910390a150565b6040518060400160405280600073ffffffffffffffffffffffffffffffffffffffff168152602001600081525090565b604051806040016040528060008019168152602001600081525090565b60405180608001604052806000815260200160008019168152602001600073ffffffffffffffffffffffffffffffffffffffff168152602001600073ffffffffffffffffffffffffffffffffffffffff1681525090565b6127c7806200376d83390190565b6000604051905090565b600080fd5b600080fd5b6000819050919050565b6200274d8162002738565b81146200275957600080fd5b50565b6000813590506200276d8162002742565b92915050565b6000602082840312156200278c576200278b6200272e565b5b60006200279c848285016200275c565b91505092915050565b620027b08162002738565b82525050565b600073ffffffffffffffffffffffffffffffffffffffff82169050919050565b6000620027e382620027b6565b9050919050565b620027f581620027d6565b82525050565b6000604082019050620028126000830185620027a5565b620028216020830184620027ea565b9392505050565b600081519050919050565b600082825260208201905092915050565b6000819050602082019050919050565b6200285f81620027d6565b82525050565b6000819050919050565b6200287a8162002865565b82525050565b60408201600082015162002898600085018262002854565b506020820151620028ad60208501826200286f565b50505050565b6000620028c1838362002880565b60408301905092915050565b6000602082019050919050565b6000620028e78262002828565b620028f3818562002833565b9350620029008362002844565b8060005b83811015620029375781516200291b8882620028b3565b97506200292883620028cd565b92505060018101905062002904565b5085935050505092915050565b60006020820190508181036000830152620029608184620028da565b905092915050565b620029738162002865565b82525050565b600060208201905062002990600083018462002968565b92915050565b6000602082019050620029ad6000830184620027a5565b92915050565b620029be8162002865565b8114620029ca57600080fd5b50565b600081359050620029de81620029b3565b92915050565b600060208284031215620029fd57620029fc6200272e565b5b600062002a0d84828501620029cd565b91505092915050565b600060808201905062002a2d600083018762002968565b62002a3c6020830186620027a5565b62002a4b6040830185620027ea565b62002a5a6060830184620027ea565b95945050505050565b600081519050919050565b600082825260208201905092915050565b6000819050602082019050919050565b62002a9a8162002738565b82525050565b60808201600082015162002ab860008501826200286f565b50602082015162002acd602085018262002a8f565b50604082015162002ae2604085018262002854565b50606082015162002af7606085018262002854565b50505050565b600062002b0b838362002aa0565b60808301905092915050565b6000602082019050919050565b600062002b318262002a63565b62002b3d818562002a6e565b935062002b4a8362002a7f565b8060005b8381101562002b8157815162002b65888262002afd565b975062002b728362002b17565b92505060018101905062002b4e565b5085935050505092915050565b6000602082019050818103600083015262002baa818462002b24565b905092915050565b600060208201905062002bc96000830184620027ea565b92915050565b6000604082019050818103600083015262002beb818562002b24565b905062002bfc602083018462002968565b9392505050565b600080fd5b6000601f19601f8301169050919050565b7f4e487b7100000000000000000000000000000000000000000000000000000000600052604160045260246000fd5b62002c538262002c08565b810181811067ffffffffffffffff8211171562002c755762002c7462002c19565b5b80604052505050565b600062002c8a62002724565b905062002c98828262002c48565b919050565b600067ffffffffffffffff82111562002cbb5762002cba62002c19565b5b602082029050602081019050919050565b600080fd5b62002cdc81620027d6565b811462002ce857600080fd5b50565b60008135905062002cfc8162002cd1565b92915050565b600062002d1962002d138462002c9d565b62002c7e565b9050808382526020820190506020840283018581111562002d3f5762002d3e62002ccc565b5b835b8181101562002d6c578062002d57888262002ceb565b84526020840193505060208101905062002d41565b5050509392505050565b600082601f83011262002d8e5762002d8d62002c03565b5b813562002da084826020860162002d02565b91505092915050565b60006020828403121562002dc25762002dc16200272e565b5b600082013567ffffffffffffffff81111562002de35762002de262002733565b5b62002df18482850162002d76565b91505092915050565b60006020828403121562002e135762002e126200272e565b5b600062002e238482850162002ceb565b91505092915050565b600081519050919050565b600082825260208201905092915050565b6000819050602082019050919050565b600062002e66838362002854565b60208301905092915050565b6000602082019050919050565b600062002e8c8262002e2c565b62002e98818562002e37565b935062002ea58362002e48565b8060005b8381101562002edc57815162002ec0888262002e58565b975062002ecd8362002e72565b92505060018101905062002ea9565b5085935050505092915050565b6000602082019050818103600083015262002f05818462002e7f565b905092915050565b60808201600082015162002f2560008501826200286f565b50602082015162002f3a602085018262002a8f565b50604082015162002f4f604085018262002854565b50606082015162002f64606085018262002854565b50505050565b600060808201905062002f81600083018462002f0d565b92915050565b60008115159050919050565b62002f9e8162002f87565b82525050565b600060208201905062002fbb600083018462002f93565b92915050565b600067ffffffffffffffff82111562002fdf5762002fde62002c19565b5b602082029050602081019050919050565b600062003007620030018462002fc1565b62002c7e565b905080838252602082019050602084028301858111156200302d576200302c62002ccc565b5b835b818110156200305a57806200304588826200275c565b8452602084019350506020810190506200302f565b5050509392505050565b600082601f8301126200307c576200307b62002c03565b5b81356200308e84826020860162002ff0565b91505092915050565b600060208284031215620030b057620030af6200272e565b5b600082013567ffffffffffffffff811115620030d157620030d062002733565b5b620030df8482850162003064565b91505092915050565b600081519050919050565b600082825260208201905092915050565b6000819050602082019050919050565b600062003122838362002a8f565b60208301905092915050565b6000602082019050919050565b60006200314882620030e8565b620031548185620030f3565b9350620031618362003104565b8060005b83811015620031985781516200317c888262003114565b975062003189836200312e565b92505060018101905062003165565b5085935050505092915050565b60006020820190508181036000830152620031c181846200313b565b905092915050565b600082825260208201905092915050565b7f43616c6c6572206973206e6f7420617574686f72697a65642e00000000000000600082015250565b600062003212601983620031c9565b91506200321f82620031da565b602082019050919050565b60006020820190508181036000830152620032458162003203565b9050919050565b7f4e487b7100000000000000000000000000000000000000000000000000000000600052603260045260246000fd5b7f4e487b7100000000000000000000000000000000000000000000000000000000600052601160045260246000fd5b6000620032b78262002865565b91507fffffffffffffffffffffffffffffffffffffffffffffffffffffffffffffffff8203620032ec57620032eb6200327b565b5b600182019050919050565b6000620033048262002865565b9150620033118362002865565b92508282019050808211156200332c576200332b6200327b565b5b92915050565b7f766f746572206973206e6f7420726567697374657265642e0000000000000000600082015250565b60006200336a601883620031c9565b9150620033778262003332565b602082019050919050565b600060208201905081810360008301526200339d816200335b565b9050919050565b7f20566f7465722068617320616c726561647920766f7465642e00000000000000600082015250565b6000620033dc601983620031c9565b9150620033e982620033a4565b602082019050919050565b600060208201905081810360008301526200340f81620033cd565b9050919050565b600081549050919050565b600082825260208201905092915050565b60008190508160005260206000209050919050565b620034528162002738565b82525050565b600062003466838362003447565b60208301905092915050565b60008160001c9050919050565b6000819050919050565b6000620034a06200349a8362003472565b6200347f565b9050919050565b6000620034b5825462003489565b9050919050565b6000600182019050919050565b6000620034d68262003416565b620034e2818562003421565b9350620034ef8362003432565b8060005b838110156200352f576200350782620034a7565b62003513888262003458565b97506200352083620034bc565b925050600181019050620034f3565b5085935050505092915050565b620035478162002738565b82525050565b60006040820190508181036000830152620035698185620034c9565b90506200357a60208301846200353c565b9392505050565b600060ff82169050919050565b620035998162003581565b8114620035a557600080fd5b50565b600081519050620035b9816200358e565b92915050565b600060208284031215620035d857620035d76200272e565b5b6000620035e884828501620035a8565b91505092915050565b6000604082019050620036086000830185620027ea565b620036176020830184620027a5565b9392505050565b7f566f74657220616c726561647920726567697374657265640000000000000000600082015250565b600062003656601883620031c9565b915062003663826200361e565b602082019050919050565b60006020820190508181036000830152620036898162003647565b9050919050565b60006200369d8262002865565b9150620036aa8362002865565b9250828203905081811115620036c557620036c46200327b565b5b92915050565b7f4e487b7100000000000000000000000000000000000000000000000000000000600052603160045260246000fd5b7f4f7074696f6e20616c7265616479206578697374732e00000000000000000000600082015250565b600062003732601683620031c9565b91506200373f82620036fa565b602082019050919050565b60006020820190508181036000830152620037658162003723565b905091905056fe60806040523480156200001157600080fd5b50604051620027c7380380620027c783398181016040528101906200003791906200016c565b336000806101000a81548173ffffffffffffffffffffffffffffffffffffffff021916908373ffffffffffffffffffffffffffffffffffffffff1602179055508160018190555080600260006101000a81548173ffffffffffffffffffffffffffffffffffffffff021916908373ffffffffffffffffffffffffffffffffffffffff1602179055505050620001b3565b600080fd5b6000819050919050565b620000e181620000cc565b8114620000ed57600080fd5b50565b6000815190506200010181620000d6565b92915050565b600073ffffffffffffffffffffffffffffffffffffffff82169050919050565b6000620001348262000107565b9050919050565b620001468162000127565b81146200015257600080fd5b50565b60008151905062000166816200013b565b92915050565b60008060408385031215620001865762000185620000c7565b5b60006200019685828601620000f0565b9250506020620001a98582860162000155565b9150509250929050565b61260480620001c36000396000f3fe608060405234801561001057600080fd5b50600436106101165760003560e01c80638da5cb5b116100a2578063d8bff5a511610071578063d8bff5a5146102e2578063eb95462514610312578063ed836bc314610330578063f36f4ff01461034f578063faaef9b81461036d57610116565b80638da5cb5b1461025a5780639346a95e14610278578063a3ec138d14610296578063d008426c146102c657610116565b80634704d8ec116100e95780634704d8ec146101a4578063523fc945146101d457806378fbaeac146102045780637ed177511461022057806385e8e7a71461023c57610116565b80630757ad011461011b5780630dc960151461014c578063257547b31461016a5780633efafb6e14610188575b600080fd5b61013560048036038101906101309190611913565b61039d565b604051610143929190611990565b60405180910390f35b6101546104fd565b6040516101619190611abf565b60405180910390f35b6101726107c6565b60405161017f9190611ae1565b60405180910390f35b6101a2600480360381019061019d9190611913565b6109d9565b005b6101be60048036038101906101b99190611b28565b610c60565b6040516101cb9190611ae1565b60405180910390f35b6101ee60048036038101906101e99190611913565b610c84565b6040516101fb9190611b64565b60405180910390f35b61021e60048036038101906102199190611d04565b610e4e565b005b61023a60048036038101906102359190611d4d565b6110ce565b005b610244611425565b6040516102519190611ae1565b60405180910390f35b61026261142b565b60405161026f9190611d7a565b60405180910390f35b61028061144f565b60405161028d9190611e44565b60405180910390f35b6102b060048036038101906102ab9190611d4d565b6114dd565b6040516102bd9190611e81565b60405180910390f35b6102e060048036038101906102db9190611f5f565b6114fd565b005b6102fc60048036038101906102f79190611d4d565b611629565b6040516103099190611b64565b60405180910390f35b61031a611641565b6040516103279190612066565b60405180910390f35b610338611699565b604051610346929190611990565b60405180910390f35b6103576116ca565b6040516103649190611d7a565b60405180910390f35b61038760048036038101906103829190611b28565b6116f0565b6040516103949190611d7a565b60405180910390f35b60008060008054906101000a900473ffffffffffffffffffffffffffffffffffffffff1673ffffffffffffffffffffffffffffffffffffffff163373ffffffffffffffffffffffffffffffffffffffff1614806104475750600260009054906101000a900473ffffffffffffffffffffffffffffffffffffffff1673ffffffffffffffffffffffffffffffffffffffff163373ffffffffffffffffffffffffffffffffffffffff16145b610486576040517f08c379a000000000000000000000000000000000000000000000000000000000815260040161047d906120e5565b60405180910390fd5b8260018190555033600260006101000a81548173ffffffffffffffffffffffffffffffffffffffff021916908373ffffffffffffffffffffffffffffffffffffffff160217905550600154600260009054906101000a900473ffffffffffffffffffffffffffffffffffffffff1691509150915091565b60606000805b6006805490508110156105c85760011515600360006006848154811061052c5761052b612105565b5b9060005260206000200160009054906101000a900473ffffffffffffffffffffffffffffffffffffffff1673ffffffffffffffffffffffffffffffffffffffff1673ffffffffffffffffffffffffffffffffffffffff16815260200190815260200160002060009054906101000a900460ff161515036105b55781806105b190612163565b9250505b80806105c090612163565b915050610503565b5060008167ffffffffffffffff8111156105e5576105e4611b95565b5b60405190808252806020026020018201604052801561061e57816020015b61060b61187c565b8152602001906001900390816106035790505b5090506000805b6006805490508110156107bc5760011515600360006006848154811061064e5761064d612105565b5b9060005260206000200160009054906101000a900473ffffffffffffffffffffffffffffffffffffffff1673ffffffffffffffffffffffffffffffffffffffff1673ffffffffffffffffffffffffffffffffffffffff16815260200190815260200160002060009054906101000a900460ff161515036107a9576000600682815481106106de576106dd612105565b5b9060005260206000200160009054906101000a900473ffffffffffffffffffffffffffffffffffffffff1690506000600460008373ffffffffffffffffffffffffffffffffffffffff1673ffffffffffffffffffffffffffffffffffffffff16815260200190815260200160002054905060405180604001604052808373ffffffffffffffffffffffffffffffffffffffff1681526020018281525085858151811061078d5761078c612105565b5b602002602001018190525083806107a390612163565b94505050505b80806107b490612163565b915050610625565b5081935050505090565b60008060058054905067ffffffffffffffff8111156107e8576107e7611b95565b5b60405190808252806020026020018201604052801561082157816020015b61080e6118ac565b8152602001906001900390816108065790505b5090506000805b6005805490508110156108d95760006005828154811061084b5761084a612105565b5b9060005260206000200154905060006108816005848154811061087157610870612105565b5b9060005260206000200154610c84565b90506040518060400160405280838152602001828152508585815181106108ab576108aa612105565b5b602002602001018190525083806108c190612163565b945050505080806108d190612163565b915050610828565b506000806000805b855181101561099957828682815181106108fe576108fd612105565b5b602002602001015160200151111561095b5785818151811061092357610922612105565b5b602002602001015160200151925085818151811061094457610943612105565b5b602002602001015160000151935060009150610986565b8286828151811061096f5761096e612105565b5b6020026020010151602001510361098557600191505b5b808061099190612163565b9150506108e1565b5080156109cd577f546965206265747765656e20746f7020766f7465206f7074696f6e7300000000955050505050506109d6565b82955050505050505b90565b600360003373ffffffffffffffffffffffffffffffffffffffff1673ffffffffffffffffffffffffffffffffffffffff16815260200190815260200160002060009054906101000a900460ff16610a65576040517f08c379a0000000000000000000000000000000000000000000000000000000008152600401610a5c906121f7565b60405180910390fd5b6000600460003373ffffffffffffffffffffffffffffffffffffffff1673ffffffffffffffffffffffffffffffffffffffff1681526020019081526020016000205414610ae7576040517f08c379a0000000000000000000000000000000000000000000000000000000008152600401610ade90612263565b60405180910390fd5b73__$de54dc1c421adc6f0c4b61e1985e2a322a$__63934fc0a16005836040518363ffffffff1660e01b8152600401610b219291906123a0565b60006040518083038186803b158015610b3957600080fd5b505af4158015610b4d573d6000803e3d6000fd5b50505050600073__$de54dc1c421adc6f0c4b61e1985e2a322a$__634c538c096005846040518363ffffffff1660e01b8152600401610b8d9291906123a0565b602060405180830381865af4158015610baa573d6000803e3d6000fd5b505050506040513d601f19601f82011682018060405250810190610bce9190612409565b60ff169050600181610be09190612436565b600460003373ffffffffffffffffffffffffffffffffffffffff1673ffffffffffffffffffffffffffffffffffffffff168152602001908152602001600020819055507ff4b7aab1c8e15149749c8399aba797e078e2caa0a35510c6424240e0d985f7423383604051610c5492919061246a565b60405180910390a15050565b60058181548110610c7057600080fd5b906000526020600020016000915090505481565b600073__$de54dc1c421adc6f0c4b61e1985e2a322a$__63934fc0a16005846040518363ffffffff1660e01b8152600401610cc09291906123a0565b60006040518083038186803b158015610cd857600080fd5b505af4158015610cec573d6000803e3d6000fd5b50505050600073__$de54dc1c421adc6f0c4b61e1985e2a322a$__634c538c096005856040518363ffffffff1660e01b8152600401610d2c9291906123a0565b602060405180830381865af4158015610d49573d6000803e3d6000fd5b505050506040513d601f19601f82011682018060405250810190610d6d9190612409565b60ff169050600181610d7f9190612436565b506000805b600680549050811015610e4357600183610d9e9190612436565b6004600060068481548110610db657610db5612105565b5b9060005260206000200160009054906101000a900473ffffffffffffffffffffffffffffffffffffffff1673ffffffffffffffffffffffffffffffffffffffff1673ffffffffffffffffffffffffffffffffffffffff1681526020019081526020016000205403610e30578180610e2c90612163565b9250505b8080610e3b90612163565b915050610d84565b508092505050919050565b60008054906101000a900473ffffffffffffffffffffffffffffffffffffffff1673ffffffffffffffffffffffffffffffffffffffff163373ffffffffffffffffffffffffffffffffffffffff161480610ef55750600260009054906101000a900473ffffffffffffffffffffffffffffffffffffffff1673ffffffffffffffffffffffffffffffffffffffff163373ffffffffffffffffffffffffffffffffffffffff16145b610f34576040517f08c379a0000000000000000000000000000000000000000000000000000000008152600401610f2b906120e5565b60405180910390fd5b60005b81518110156110935760036000838381518110610f5757610f56612105565b5b602002602001015173ffffffffffffffffffffffffffffffffffffffff1673ffffffffffffffffffffffffffffffffffffffff16815260200190815260200160002060009054906101000a900460ff1661104557600160036000848481518110610fc457610fc3612105565b5b602002602001015173ffffffffffffffffffffffffffffffffffffffff1673ffffffffffffffffffffffffffffffffffffffff16815260200190815260200160002060006101000a81548160ff02191690831515021790555061104082828151811061103357611032612105565b5b602002602001015161172f565b611080565b6040517f08c379a0000000000000000000000000000000000000000000000000000000008152600401611077906124df565b60405180910390fd5b808061108b90612163565b915050610f37565b507fa23088639b8870418f6efa6c948c63361f430f913c5343d271e0ee29f60aaa2a816040516110c39190611e44565b60405180910390a150565b60008054906101000a900473ffffffffffffffffffffffffffffffffffffffff1673ffffffffffffffffffffffffffffffffffffffff163373ffffffffffffffffffffffffffffffffffffffff1614806111755750600260009054906101000a900473ffffffffffffffffffffffffffffffffffffffff1673ffffffffffffffffffffffffffffffffffffffff163373ffffffffffffffffffffffffffffffffffffffff16145b6111b4576040517f08c379a00000000000000000000000000000000000000000000000000000000081526004016111ab906120e5565b60405180910390fd5b600360008273ffffffffffffffffffffffffffffffffffffffff1673ffffffffffffffffffffffffffffffffffffffff16815260200190815260200160002060009054906101000a900460ff1661120a57600080fd5b6000600360008373ffffffffffffffffffffffffffffffffffffffff1673ffffffffffffffffffffffffffffffffffffffff16815260200190815260200160002060006101000a81548160ff02191690831515021790555060005b6006805490508110156113ea578173ffffffffffffffffffffffffffffffffffffffff166006828154811061129d5761129c612105565b5b9060005260206000200160009054906101000a900473ffffffffffffffffffffffffffffffffffffffff1673ffffffffffffffffffffffffffffffffffffffff16036113d757600660016006805490506112f791906124ff565b8154811061130857611307612105565b5b9060005260206000200160009054906101000a900473ffffffffffffffffffffffffffffffffffffffff166006828154811061134757611346612105565b5b9060005260206000200160006101000a81548173ffffffffffffffffffffffffffffffffffffffff021916908373ffffffffffffffffffffffffffffffffffffffff16021790555060068054806113a1576113a0612533565b5b6001900381819060005260206000200160006101000a81549073ffffffffffffffffffffffffffffffffffffffff021916905590555b80806113e290612163565b915050611265565b507feb73c070e497672efd6ec8d28c7d42094c17cf80d13d9dab4766e5b97017a6f48160405161141a9190611d7a565b60405180910390a150565b60015481565b60008054906101000a900473ffffffffffffffffffffffffffffffffffffffff1681565b606060068054806020026020016040519081016040528092919081815260200182805480156114d357602002820191906000526020600020905b8160009054906101000a900473ffffffffffffffffffffffffffffffffffffffff1673ffffffffffffffffffffffffffffffffffffffff1681526020019060010190808311611489575b5050505050905090565b60036020528060005260406000206000915054906101000a900460ff1681565b60008054906101000a900473ffffffffffffffffffffffffffffffffffffffff1673ffffffffffffffffffffffffffffffffffffffff163373ffffffffffffffffffffffffffffffffffffffff1614806115a45750600260009054906101000a900473ffffffffffffffffffffffffffffffffffffffff1673ffffffffffffffffffffffffffffffffffffffff163373ffffffffffffffffffffffffffffffffffffffff16145b6115e3576040517f08c379a00000000000000000000000000000000000000000000000000000000081526004016115da906120e5565b60405180910390fd5b60005b81518110156116255761161282828151811061160557611604612105565b5b6020026020010151611795565b808061161d90612163565b9150506115e6565b5050565b60046020528060005260406000206000915090505481565b6060600580548060200260200160405190810160405280929190818152602001828054801561168f57602002820191906000526020600020905b81548152602001906001019080831161167b575b5050505050905090565b600080600154600260009054906101000a900473ffffffffffffffffffffffffffffffffffffffff16915091509091565b600260009054906101000a900473ffffffffffffffffffffffffffffffffffffffff1681565b6006818154811061170057600080fd5b906000526020600020016000915054906101000a900473ffffffffffffffffffffffffffffffffffffffff1681565b6006819080600181540180825580915050600190039060005260206000200160009091909190916101000a81548173ffffffffffffffffffffffffffffffffffffffff021916908373ffffffffffffffffffffffffffffffffffffffff16021790555050565b60005b6005805490508110156118185781600582815481106117ba576117b9612105565b5b906000526020600020015403611805576040517f08c379a00000000000000000000000000000000000000000000000000000000081526004016117fc906125ae565b60405180910390fd5b808061181090612163565b915050611798565b5060058190806001815401808255809150506001900390600052602060002001600090919091909150557fcc50179f97952c8701ac18fe314dd07ed718967ff75bf2d22230a450d619e065816040516118719190611ae1565b60405180910390a150565b6040518060400160405280600073ffffffffffffffffffffffffffffffffffffffff168152602001600081525090565b604051806040016040528060008019168152602001600081525090565b6000604051905090565b600080fd5b600080fd5b6000819050919050565b6118f0816118dd565b81146118fb57600080fd5b50565b60008135905061190d816118e7565b92915050565b600060208284031215611929576119286118d3565b5b6000611937848285016118fe565b91505092915050565b611949816118dd565b82525050565b600073ffffffffffffffffffffffffffffffffffffffff82169050919050565b600061197a8261194f565b9050919050565b61198a8161196f565b82525050565b60006040820190506119a56000830185611940565b6119b26020830184611981565b9392505050565b600081519050919050565b600082825260208201905092915050565b6000819050602082019050919050565b6119ee8161196f565b82525050565b6000819050919050565b611a07816119f4565b82525050565b604082016000820151611a2360008501826119e5565b506020820151611a3660208501826119fe565b50505050565b6000611a488383611a0d565b60408301905092915050565b6000602082019050919050565b6000611a6c826119b9565b611a7681856119c4565b9350611a81836119d5565b8060005b83811015611ab2578151611a998882611a3c565b9750611aa483611a54565b925050600181019050611a85565b5085935050505092915050565b60006020820190508181036000830152611ad98184611a61565b905092915050565b6000602082019050611af66000830184611940565b92915050565b611b05816119f4565b8114611b1057600080fd5b50565b600081359050611b2281611afc565b92915050565b600060208284031215611b3e57611b3d6118d3565b5b6000611b4c84828501611b13565b91505092915050565b611b5e816119f4565b82525050565b6000602082019050611b796000830184611b55565b92915050565b600080fd5b6000601f19601f8301169050919050565b7f4e487b7100000000000000000000000000000000000000000000000000000000600052604160045260246000fd5b611bcd82611b84565b810181811067ffffffffffffffff82111715611bec57611beb611b95565b5b80604052505050565b6000611bff6118c9565b9050611c0b8282611bc4565b919050565b600067ffffffffffffffff821115611c2b57611c2a611b95565b5b602082029050602081019050919050565b600080fd5b611c4a8161196f565b8114611c5557600080fd5b50565b600081359050611c6781611c41565b92915050565b6000611c80611c7b84611c10565b611bf5565b90508083825260208201905060208402830185811115611ca357611ca2611c3c565b5b835b81811015611ccc5780611cb88882611c58565b845260208401935050602081019050611ca5565b5050509392505050565b600082601f830112611ceb57611cea611b7f565b5b8135611cfb848260208601611c6d565b91505092915050565b600060208284031215611d1a57611d196118d3565b5b600082013567ffffffffffffffff811115611d3857611d376118d8565b5b611d4484828501611cd6565b91505092915050565b600060208284031215611d6357611d626118d3565b5b6000611d7184828501611c58565b91505092915050565b6000602082019050611d8f6000830184611981565b92915050565b600081519050919050565b600082825260208201905092915050565b6000819050602082019050919050565b6000611dcd83836119e5565b60208301905092915050565b6000602082019050919050565b6000611df182611d95565b611dfb8185611da0565b9350611e0683611db1565b8060005b83811015611e37578151611e1e8882611dc1565b9750611e2983611dd9565b925050600181019050611e0a565b5085935050505092915050565b60006020820190508181036000830152611e5e8184611de6565b905092915050565b60008115159050919050565b611e7b81611e66565b82525050565b6000602082019050611e966000830184611e72565b92915050565b600067ffffffffffffffff821115611eb757611eb6611b95565b5b602082029050602081019050919050565b6000611edb611ed684611e9c565b611bf5565b90508083825260208201905060208402830185811115611efe57611efd611c3c565b5b835b81811015611f275780611f1388826118fe565b845260208401935050602081019050611f00565b5050509392505050565b600082601f830112611f4657611f45611b7f565b5b8135611f56848260208601611ec8565b91505092915050565b600060208284031215611f7557611f746118d3565b5b600082013567ffffffffffffffff811115611f9357611f926118d8565b5b611f9f84828501611f31565b91505092915050565b600081519050919050565b600082825260208201905092915050565b6000819050602082019050919050565b611fdd816118dd565b82525050565b6000611fef8383611fd4565b60208301905092915050565b6000602082019050919050565b600061201382611fa8565b61201d8185611fb3565b935061202883611fc4565b8060005b838110156120595781516120408882611fe3565b975061204b83611ffb565b92505060018101905061202c565b5085935050505092915050565b600060208201905081810360008301526120808184612008565b905092915050565b600082825260208201905092915050565b7f43616c6c6572206973206e6f7420617574686f72697a65642e00000000000000600082015250565b60006120cf601983612088565b91506120da82612099565b602082019050919050565b600060208201905081810360008301526120fe816120c2565b9050919050565b7f4e487b7100000000000000000000000000000000000000000000000000000000600052603260045260246000fd5b7f4e487b7100000000000000000000000000000000000000000000000000000000600052601160045260246000fd5b600061216e826119f4565b91507fffffffffffffffffffffffffffffffffffffffffffffffffffffffffffffffff82036121a05761219f612134565b5b600182019050919050565b7f766f746572206973206e6f7420726567697374657265642e0000000000000000600082015250565b60006121e1601883612088565b91506121ec826121ab565b602082019050919050565b60006020820190508181036000830152612210816121d4565b9050919050565b7f20566f7465722068617320616c726561647920766f7465642e00000000000000600082015250565b600061224d601983612088565b915061225882612217565b602082019050919050565b6000602082019050818103600083015261227c81612240565b9050919050565b600081549050919050565b600082825260208201905092915050565b60008190508160005260206000209050919050565b6122bd816118dd565b82525050565b60006122cf83836122b4565b60208301905092915050565b60008160001c9050919050565b6000819050919050565b6000612305612300836122db565b6122e8565b9050919050565b600061231882546122f2565b9050919050565b6000600182019050919050565b600061233782612283565b612341818561228e565b935061234c8361229f565b8060005b83811015612384576123618261230c565b61236b88826122c3565b97506123768361231f565b925050600181019050612350565b5085935050505092915050565b61239a816118dd565b82525050565b600060408201905081810360008301526123ba818561232c565b90506123c96020830184612391565b9392505050565b600060ff82169050919050565b6123e6816123d0565b81146123f157600080fd5b50565b600081519050612403816123dd565b92915050565b60006020828403121561241f5761241e6118d3565b5b600061242d848285016123f4565b91505092915050565b6000612441826119f4565b915061244c836119f4565b925082820190508082111561246457612463612134565b5b92915050565b600060408201905061247f6000830185611981565b61248c6020830184611940565b9392505050565b7f566f74657220616c726561647920726567697374657265640000000000000000600082015250565b60006124c9601883612088565b91506124d482612493565b602082019050919050565b600060208201905081810360008301526124f8816124bc565b9050919050565b600061250a826119f4565b9150612515836119f4565b925082820390508181111561252d5761252c612134565b5b92915050565b7f4e487b7100000000000000000000000000000000000000000000000000000000600052603160045260246000fd5b7f4f7074696f6e20616c7265616479206578697374732e00000000000000000000600082015250565b6000612598601683612088565b91506125a382612562565b602082019050919050565b600060208201905081810360008301526125c78161258b565b905091905056fea264697066735822122072a9f4e3a29d426d402e4d97cb0dbaaf08713bdc2440809f6bd8e7e70cbb0d0064736f6c63430008110033a2646970667358221220840f69a3263c2d2b763a8873245657ca673b245d0def5638e88c3790cbda06ed64736f6c63430008110033",
  "linkReferences": {
    "contracts/checker.sol": {
      "checker": [
        {
          "length": 20,
          "start": 4376
        },
        {
          "length": 20,
          "start": 4488
        },
        {
          "length": 20,
          "start": 4866
        },
        {
          "length": 20,
          "start": 4978
        },
        {
          "length": 20,
          "start": 17614
        },
        {
          "length": 20,
          "start": 17722
        },
        {
          "length": 20,
          "start": 18029
        },
        {
          "length": 20,
          "start": 18137
        }
      ]
    }
  },
  "deployedLinkReferences": {
    "contracts/checker.sol": {
      "checker": [
        {
          "length": 20,
          "start": 4195
        },
        {
          "length": 20,
          "start": 4307
        },
        {
          "length": 20,
          "start": 4685
        },
        {
          "length": 20,
          "start": 4797
        },
        {
          "length": 20,
          "start": 17433
        },
        {
          "length": 20,
          "start": 17541
        },
        {
          "length": 20,
          "start": 17848
        },
        {
          "length": 20,
          "start": 17956
        }
      ]
    }
  }
}