{
  "_format": "hh-sol-artifact-1",
  "contractName": "Election",
  "sourceName": "contracts/election.sol",
  "abi": [
    {
      "inputs": [],
      "stateMutability": "nonpayable",
      "type": "constructor"
    },
    {
      "anonymous": false,
      "inputs": [
        {
          "indexed": false,
          "internalType": "string",
          "name": "voteOption",
          "type": "string"
        }
      ],
      "name": "addedVoteOption",
      "type": "event"
    },
    {
      "anonymous": false,
      "inputs": [
        {
          "indexed": false,
          "internalType": "address",
          "name": "voter",
          "type": "address"
        },
        {
          "indexed": false,
          "internalType": "string",
          "name": "voteOption",
          "type": "string"
        }
      ],
      "name": "newVote",
      "type": "event"
    },
    {
      "anonymous": false,
      "inputs": [
        {
          "indexed": false,
          "internalType": "address",
          "name": "voterAddress",
          "type": "address"
        }
      ],
      "name": "newVoterAdded",
      "type": "event"
    },
    {
      "anonymous": false,
      "inputs": [
        {
          "indexed": false,
          "internalType": "address",
          "name": "voterAddress",
          "type": "address"
        }
      ],
      "name": "voterRemoved",
      "type": "event"
    },
    {
      "inputs": [
        {
          "internalType": "string",
          "name": "option",
          "type": "string"
        }
      ],
      "name": "addVoteOption",
      "outputs": [],
      "stateMutability": "nonpayable",
      "type": "function"
    },
    {
      "inputs": [],
      "name": "allElections",
      "outputs": [
        {
          "internalType": "address[]",
          "name": "",
          "type": "address[]"
        }
      ],
      "stateMutability": "view",
      "type": "function"
    },
    {
      "inputs": [
        {
          "internalType": "uint256",
          "name": "",
          "type": "uint256"
        }
      ],
      "name": "allowedVoters",
      "outputs": [
        {
          "internalType": "address",
          "name": "",
          "type": "address"
        }
      ],
      "stateMutability": "view",
      "type": "function"
    },
    {
      "inputs": [
        {
          "internalType": "string",
          "name": "option",
          "type": "string"
        }
      ],
      "name": "castVote",
      "outputs": [],
      "stateMutability": "nonpayable",
      "type": "function"
    },
    {
      "inputs": [
        {
          "internalType": "string",
          "name": "_electionName",
          "type": "string"
        }
      ],
      "name": "createElection",
      "outputs": [
        {
          "internalType": "address",
          "name": "_electionAddress",
          "type": "address"
        }
      ],
      "stateMutability": "nonpayable",
      "type": "function"
    },
    {
      "inputs": [],
      "name": "electionCount",
      "outputs": [
        {
          "internalType": "uint256",
          "name": "",
          "type": "uint256"
        }
      ],
      "stateMutability": "view",
      "type": "function"
    },
    {
      "inputs": [],
      "name": "getElectionCount",
      "outputs": [
        {
          "internalType": "uint256",
          "name": "_electionCount",
          "type": "uint256"
        }
      ],
      "stateMutability": "view",
      "type": "function"
    },
    {
      "inputs": [],
      "name": "getElectionDetails",
      "outputs": [
        {
          "internalType": "string",
          "name": "",
          "type": "string"
        },
        {
          "internalType": "address",
          "name": "",
          "type": "address"
        }
      ],
      "stateMutability": "view",
      "type": "function"
    },
    {
      "inputs": [],
      "name": "getVotes",
      "outputs": [
        {
          "components": [
            {
              "internalType": "address",
              "name": "validVoter",
              "type": "address"
            },
            {
              "internalType": "uint256",
              "name": "votedFor",
              "type": "uint256"
            }
          ],
          "internalType": "struct Voting.voterAndVotes[]",
          "name": "",
          "type": "tuple[]"
        }
      ],
      "stateMutability": "view",
      "type": "function"
    },
    {
      "inputs": [],
      "name": "owner",
      "outputs": [
        {
          "internalType": "address",
          "name": "",
          "type": "address"
        }
      ],
      "stateMutability": "view",
      "type": "function"
    },
    {
      "inputs": [
        {
          "internalType": "address",
          "name": "voter",
          "type": "address"
        }
      ],
      "name": "registerVoter",
      "outputs": [],
      "stateMutability": "nonpayable",
      "type": "function"
    },
    {
      "inputs": [
        {
          "internalType": "string",
          "name": "_electionName",
          "type": "string"
        }
      ],
      "name": "setElectionDetails",
      "outputs": [
        {
          "internalType": "string",
          "name": "",
          "type": "string"
        },
        {
          "internalType": "address",
          "name": "",
          "type": "address"
        }
      ],
      "stateMutability": "nonpayable",
      "type": "function"
    },
    {
      "inputs": [
        {
          "internalType": "address",
          "name": "voter",
          "type": "address"
        }
      ],
      "name": "unregisterVoter",
      "outputs": [],
      "stateMutability": "nonpayable",
      "type": "function"
    },
    {
      "inputs": [
        {
          "internalType": "uint256",
          "name": "_index",
          "type": "uint256"
        }
      ],
      "name": "viewElectionAddress",
      "outputs": [
        {
          "internalType": "address",
          "name": "_electionAddress",
          "type": "address"
        }
      ],
      "stateMutability": "view",
      "type": "function"
    },
    {
      "inputs": [],
      "name": "viewLastDeployedElection",
      "outputs": [
        {
          "internalType": "address",
          "name": "_electionAddress",
          "type": "address"
        }
      ],
      "stateMutability": "view",
      "type": "function"
    },
    {
      "inputs": [
        {
          "internalType": "uint256",
          "name": "",
          "type": "uint256"
        }
      ],
      "name": "voteOptions",
      "outputs": [
        {
          "internalType": "string",
          "name": "",
          "type": "string"
        }
      ],
      "stateMutability": "view",
      "type": "function"
    },
    {
      "inputs": [
        {
          "internalType": "address",
          "name": "",
          "type": "address"
        }
      ],
      "name": "voters",
      "outputs": [
        {
          "internalType": "bool",
          "name": "",
          "type": "bool"
        }
      ],
      "stateMutability": "view",
      "type": "function"
    },
    {
      "inputs": [
        {
          "internalType": "address",
          "name": "",
          "type": "address"
        }
      ],
      "name": "votes",
      "outputs": [
        {
          "internalType": "uint256",
          "name": "",
          "type": "uint256"
        }
      ],
      "stateMutability": "view",
      "type": "function"
    }
  ],
  "bytecode": "0x60806040523480156200001157600080fd5b5060405180602001604052806000815250336000806101000a81548173ffffffffffffffffffffffffffffffffffffffff021916908373ffffffffffffffffffffffffffffffffffffffff160217905550806001908162000073919062000336565b5033600260006101000a81548173ffffffffffffffffffffffffffffffffffffffff021916908373ffffffffffffffffffffffffffffffffffffffff160217905550506200041d565b600081519050919050565b7f4e487b7100000000000000000000000000000000000000000000000000000000600052604160045260246000fd5b7f4e487b7100000000000000000000000000000000000000000000000000000000600052602260045260246000fd5b600060028204905060018216806200013e57607f821691505b602082108103620001545762000153620000f6565b5b50919050565b60008190508160005260206000209050919050565b60006020601f8301049050919050565b600082821b905092915050565b600060088302620001be7fffffffffffffffffffffffffffffffffffffffffffffffffffffffffffffffff826200017f565b620001ca86836200017f565b95508019841693508086168417925050509392505050565b6000819050919050565b6000819050919050565b600062000217620002116200020b84620001e2565b620001ec565b620001e2565b9050919050565b6000819050919050565b6200023383620001f6565b6200024b62000242826200021e565b8484546200018c565b825550505050565b600090565b6200026262000253565b6200026f81848462000228565b505050565b5b8181101562000297576200028b60008262000258565b60018101905062000275565b5050565b601f821115620002e657620002b0816200015a565b620002bb846200016f565b81016020851015620002cb578190505b620002e3620002da856200016f565b83018262000274565b50505b505050565b600082821c905092915050565b60006200030b60001984600802620002eb565b1980831691505092915050565b6000620003268383620002f8565b9150826002028217905092915050565b6200034182620000bc565b67ffffffffffffffff8111156200035d576200035c620000c7565b5b62000369825462000125565b620003768282856200029b565b600060209050601f831160018114620003ae576000841562000399578287015190505b620003a5858262000318565b86555062000415565b601f198416620003be866200015a565b60005b82811015620003e857848901518255600182019150602085019450602081019050620003c1565b8683101562000408578489015162000404601f891682620002f8565b8355505b6001600288020188555050505b505050505050565b614661806200042d6000396000f3fe60806040523480156200001157600080fd5b5060043610620001305760003560e01c80638da5cb5b11620000b1578063b94617d5116200007b578063b94617d5146200034e578063d8bff5a5146200036e578063dfec13a514620003a4578063ed836bc314620003c6578063faaef9b814620003e95762000130565b80638da5cb5b14620002b4578063997d283014620002d65780639cc2d99314620002f8578063a3ec138d14620003185762000130565b8063379b721d11620000ff578063379b721d14620001e657806338db6dd314620002085780634704d8ec14620002285780634c54f0dc146200025e5780637ed1775114620002945762000130565b80630dc96015146200013557806313e038f9146200015757806315cf4a5f146200018e578063213785a014620001c4575b600080fd5b6200013f6200041f565b6040516200014e919062001653565b60405180910390f35b6200017560048036038101906200016f9190620017ed565b62000709565b60405162000185929190620018d8565b60405180910390f35b620001ac6004803603810190620001a69190620017ed565b62000822565b604051620001bb91906200190c565b60405180910390f35b620001ce620008d7565b604051620001dd91906200193a565b60405180910390f35b620001f0620008e1565b604051620001ff919062001a14565b60405180910390f35b62000226600480360381019062000220919062001a69565b62000a33565b005b62000246600480360381019062000240919062001acc565b62000bdb565b60405162000255919062001afe565b60405180910390f35b6200027c600480360381019062000276919062001acc565b62000c90565b6040516200028b91906200190c565b60405180910390f35b620002b26004803603810190620002ac919062001a69565b62000ccd565b005b620002be62000fad565b604051620002cd91906200190c565b60405180910390f35b620002e062000fd1565b604051620002ef91906200193a565b60405180910390f35b620003166004803603810190620003109190620017ed565b62000fd7565b005b62000336600480360381019062000330919062001a69565b62001271565b60405162000345919062001b3f565b60405180910390f35b6200036c6004803603810190620003669190620017ed565b62001291565b005b6200038c600480360381019062000386919062001a69565b6200135d565b6040516200039b91906200193a565b60405180910390f35b620003ae62001375565b604051620003bd91906200190c565b60405180910390f35b620003d0620013c0565b604051620003e0929190620018d8565b60405180910390f35b62000407600480360381019062000401919062001acc565b62001485565b6040516200041691906200190c565b60405180910390f35b60606000805b600680549050811015620004f45760011515600360006006848154811062000452576200045162001b5c565b5b9060005260206000200160009054906101000a900473ffffffffffffffffffffffffffffffffffffffff1673ffffffffffffffffffffffffffffffffffffffff1673ffffffffffffffffffffffffffffffffffffffff16815260200190815260200160002060009054906101000a900460ff16151503620004de578180620004da9062001bba565b9250505b8080620004eb9062001bba565b91505062000425565b5060008167ffffffffffffffff811115620005145762000513620016a6565b5b6040519080825280602002602001820160405280156200055157816020015b6200053d620014c5565b815260200190600190039081620005335790505b5090506000805b600680549050811015620006ff5760011515600360006006848154811062000585576200058462001b5c565b5b9060005260206000200160009054906101000a900473ffffffffffffffffffffffffffffffffffffffff1673ffffffffffffffffffffffffffffffffffffffff1673ffffffffffffffffffffffffffffffffffffffff16815260200190815260200160002060009054906101000a900460ff16151503620006e95760006006828154811062000619576200061862001b5c565b5b9060005260206000200160009054906101000a900473ffffffffffffffffffffffffffffffffffffffff1690506000600460008373ffffffffffffffffffffffffffffffffffffffff1673ffffffffffffffffffffffffffffffffffffffff16815260200190815260200160002054905060405180604001604052808373ffffffffffffffffffffffffffffffffffffffff16815260200182815250858581518110620006cb57620006ca62001b5c565b5b60200260200101819052508380620006e39062001bba565b94505050505b8080620006f69062001bba565b91505062000558565b5081935050505090565b6060600082600190816200071e919062001e3d565b5033600260006101000a81548173ffffffffffffffffffffffffffffffffffffffff021916908373ffffffffffffffffffffffffffffffffffffffff1602179055506001600260009054906101000a900473ffffffffffffffffffffffffffffffffffffffff16818054620007939062001c36565b80601f0160208091040260200160405190810160405280929190818152602001828054620007c19062001c36565b8015620008125780601f10620007e65761010080835404028352916020019162000812565b820191906000526020600020905b815481529060010190602001808311620007f457829003601f168201915b5050505050915091509150915091565b600080826040516200083490620014f5565b62000840919062001afe565b604051809103906000f0801580156200085d573d6000803e3d6000fd5b5090508060086000600754815260200190815260200160002060006101000a81548173ffffffffffffffffffffffffffffffffffffffff021916908373ffffffffffffffffffffffffffffffffffffffff16021790555060076000815480929190620008c99062001bba565b919050555080915050919050565b6000600754905090565b60606000805b60075481101562000918578180620008ff9062001bba565b92505080806200090f9062001bba565b915050620008e7565b5060008167ffffffffffffffff811115620009385762000937620016a6565b5b604051908082528060200260200182016040528015620009675781602001602082028036833780820191505090505b5090506000805b60075481101562000a295760006008600083815260200190815260200160002060009054906101000a900473ffffffffffffffffffffffffffffffffffffffff16905080848481518110620009c857620009c762001b5c565b5b602002602001019073ffffffffffffffffffffffffffffffffffffffff16908173ffffffffffffffffffffffffffffffffffffffff1681525050828062000a0f9062001bba565b93505050808062000a209062001bba565b9150506200096e565b5081935050505090565b60008054906101000a900473ffffffffffffffffffffffffffffffffffffffff1673ffffffffffffffffffffffffffffffffffffffff163373ffffffffffffffffffffffffffffffffffffffff161462000a8c57600080fd5b600360008273ffffffffffffffffffffffffffffffffffffffff1673ffffffffffffffffffffffffffffffffffffffff16815260200190815260200160002060009054906101000a900460ff161562000ae457600080fd5b6001600360008373ffffffffffffffffffffffffffffffffffffffff1673ffffffffffffffffffffffffffffffffffffffff16815260200190815260200160002060006101000a81548160ff0219169083151502179055506006819080600181540180825580915050600190039060005260206000200160009091909190916101000a81548173ffffffffffffffffffffffffffffffffffffffff021916908373ffffffffffffffffffffffffffffffffffffffff1602179055507fb46705364affca1eb6838310d9b3cb8b788f258ebf0128fc8dd51a0996fb05578160405162000bd091906200190c565b60405180910390a150565b6005818154811062000bec57600080fd5b90600052602060002001600091509050805462000c099062001c36565b80601f016020809104026020016040519081016040528092919081815260200182805462000c379062001c36565b801562000c885780601f1062000c5c5761010080835404028352916020019162000c88565b820191906000526020600020905b81548152906001019060200180831162000c6a57829003601f168201915b505050505081565b60006008600083815260200190815260200160002060009054906101000a900473ffffffffffffffffffffffffffffffffffffffff169050919050565b60008054906101000a900473ffffffffffffffffffffffffffffffffffffffff1673ffffffffffffffffffffffffffffffffffffffff163373ffffffffffffffffffffffffffffffffffffffff161462000d2657600080fd5b600360008273ffffffffffffffffffffffffffffffffffffffff1673ffffffffffffffffffffffffffffffffffffffff16815260200190815260200160002060009054906101000a900460ff1662000d7d57600080fd5b6000600360008373ffffffffffffffffffffffffffffffffffffffff1673ffffffffffffffffffffffffffffffffffffffff16815260200190815260200160002060006101000a81548160ff02191690831515021790555060005b60068054905081101562000f70578173ffffffffffffffffffffffffffffffffffffffff166006828154811062000e145762000e1362001b5c565b5b9060005260206000200160009054906101000a900473ffffffffffffffffffffffffffffffffffffffff1673ffffffffffffffffffffffffffffffffffffffff160362000f5a576006600160068054905062000e71919062001f24565b8154811062000e855762000e8462001b5c565b5b9060005260206000200160009054906101000a900473ffffffffffffffffffffffffffffffffffffffff166006828154811062000ec75762000ec662001b5c565b5b9060005260206000200160006101000a81548173ffffffffffffffffffffffffffffffffffffffff021916908373ffffffffffffffffffffffffffffffffffffffff160217905550600680548062000f245762000f2362001f5f565b5b6001900381819060005260206000200160006101000a81549073ffffffffffffffffffffffffffffffffffffffff021916905590555b808062000f679062001bba565b91505062000dd8565b507feb73c070e497672efd6ec8d28c7d42094c17cf80d13d9dab4766e5b97017a6f48160405162000fa291906200190c565b60405180910390a150565b60008054906101000a900473ffffffffffffffffffffffffffffffffffffffff1681565b60075481565b600360003373ffffffffffffffffffffffffffffffffffffffff1673ffffffffffffffffffffffffffffffffffffffff16815260200190815260200160002060009054906101000a900460ff1662001066576040517f08c379a00000000000000000000000000000000000000000000000000000000081526004016200105d9062001fde565b60405180910390fd5b6000600460003373ffffffffffffffffffffffffffffffffffffffff1673ffffffffffffffffffffffffffffffffffffffff1681526020019081526020016000205414620010eb576040517f08c379a0000000000000000000000000000000000000000000000000000000008152600401620010e29062002050565b60405180910390fd5b73__$de54dc1c421adc6f0c4b61e1985e2a322a$__63348ed3c46005836040518363ffffffff1660e01b81526004016200112792919062002239565b60006040518083038186803b1580156200114057600080fd5b505af415801562001155573d6000803e3d6000fd5b50505050600073__$de54dc1c421adc6f0c4b61e1985e2a322a$__63fe5eb5f76005846040518363ffffffff1660e01b81526004016200119792919062002239565b602060405180830381865af4158015620011b5573d6000803e3d6000fd5b505050506040513d601f19601f82011682018060405250810190620011db9190620022b2565b60ff169050600181620011ef9190620022e4565b600460003373ffffffffffffffffffffffffffffffffffffffff1673ffffffffffffffffffffffffffffffffffffffff168152602001908152602001600020819055507f14dab1280774b2e01063b9bd194757b0fb5c1304d26906874719f08539ab9ed13383604051620012659291906200231f565b60405180910390a15050565b60036020528060005260406000206000915054906101000a900460ff1681565b60008054906101000a900473ffffffffffffffffffffffffffffffffffffffff1673ffffffffffffffffffffffffffffffffffffffff163373ffffffffffffffffffffffffffffffffffffffff1614620012ea57600080fd5b60058190806001815401808255809150506001900390600052602060002001600090919091909150908162001320919062001e3d565b507f39d0cd849bf30c1a09c13386d1a81da085bda2ae8a28c3a99925d85d71790abf8160405162001352919062001afe565b60405180910390a150565b60046020528060005260406000206000915090505481565b60006008600060016007546200138c919062001f24565b815260200190815260200160002060009054906101000a900473ffffffffffffffffffffffffffffffffffffffff16905090565b606060006001600260009054906101000a900473ffffffffffffffffffffffffffffffffffffffff16818054620013f79062001c36565b80601f0160208091040260200160405190810160405280929190818152602001828054620014259062001c36565b8015620014765780601f106200144a5761010080835404028352916020019162001476565b820191906000526020600020905b8154815290600101906020018083116200145857829003601f168201915b50505050509150915091509091565b600681815481106200149657600080fd5b906000526020600020016000915054906101000a900473ffffffffffffffffffffffffffffffffffffffff1681565b6040518060400160405280600073ffffffffffffffffffffffffffffffffffffffff168152602001600081525090565b6122d8806200235483390190565b600081519050919050565b600082825260208201905092915050565b6000819050602082019050919050565b600073ffffffffffffffffffffffffffffffffffffffff82169050919050565b60006200155c826200152f565b9050919050565b6200156e816200154f565b82525050565b6000819050919050565b620015898162001574565b82525050565b604082016000820151620015a7600085018262001563565b506020820151620015bc60208501826200157e565b50505050565b6000620015d083836200158f565b60408301905092915050565b6000602082019050919050565b6000620015f68262001503565b6200160281856200150e565b93506200160f836200151f565b8060005b83811015620016465781516200162a8882620015c2565b97506200163783620015dc565b92505060018101905062001613565b5085935050505092915050565b600060208201905081810360008301526200166f8184620015e9565b905092915050565b6000604051905090565b600080fd5b600080fd5b600080fd5b600080fd5b6000601f19601f8301169050919050565b7f4e487b7100000000000000000000000000000000000000000000000000000000600052604160045260246000fd5b620016e08262001695565b810181811067ffffffffffffffff82111715620017025762001701620016a6565b5b80604052505050565b60006200171762001677565b9050620017258282620016d5565b919050565b600067ffffffffffffffff821115620017485762001747620016a6565b5b620017538262001695565b9050602081019050919050565b82818337600083830152505050565b60006200178662001780846200172a565b6200170b565b905082815260208101848484011115620017a557620017a462001690565b5b620017b284828562001760565b509392505050565b600082601f830112620017d257620017d16200168b565b5b8135620017e48482602086016200176f565b91505092915050565b60006020828403121562001806576200180562001681565b5b600082013567ffffffffffffffff81111562001827576200182662001686565b5b6200183584828501620017ba565b91505092915050565b600081519050919050565b600082825260208201905092915050565b60005b838110156200187a5780820151818401526020810190506200185d565b60008484015250505050565b600062001893826200183e565b6200189f818562001849565b9350620018b18185602086016200185a565b620018bc8162001695565b840191505092915050565b620018d2816200154f565b82525050565b60006040820190508181036000830152620018f4818562001886565b9050620019056020830184620018c7565b9392505050565b6000602082019050620019236000830184620018c7565b92915050565b620019348162001574565b82525050565b600060208201905062001951600083018462001929565b92915050565b600081519050919050565b600082825260208201905092915050565b6000819050602082019050919050565b600062001991838362001563565b60208301905092915050565b6000602082019050919050565b6000620019b78262001957565b620019c3818562001962565b9350620019d08362001973565b8060005b8381101562001a07578151620019eb888262001983565b9750620019f8836200199d565b925050600181019050620019d4565b5085935050505092915050565b6000602082019050818103600083015262001a308184620019aa565b905092915050565b62001a43816200154f565b811462001a4f57600080fd5b50565b60008135905062001a638162001a38565b92915050565b60006020828403121562001a825762001a8162001681565b5b600062001a928482850162001a52565b91505092915050565b62001aa68162001574565b811462001ab257600080fd5b50565b60008135905062001ac68162001a9b565b92915050565b60006020828403121562001ae55762001ae462001681565b5b600062001af58482850162001ab5565b91505092915050565b6000602082019050818103600083015262001b1a818462001886565b905092915050565b60008115159050919050565b62001b398162001b22565b82525050565b600060208201905062001b56600083018462001b2e565b92915050565b7f4e487b7100000000000000000000000000000000000000000000000000000000600052603260045260246000fd5b7f4e487b7100000000000000000000000000000000000000000000000000000000600052601160045260246000fd5b600062001bc78262001574565b91507fffffffffffffffffffffffffffffffffffffffffffffffffffffffffffffffff820362001bfc5762001bfb62001b8b565b5b600182019050919050565b7f4e487b7100000000000000000000000000000000000000000000000000000000600052602260045260246000fd5b6000600282049050600182168062001c4f57607f821691505b60208210810362001c655762001c6462001c07565b5b50919050565b60008190508160005260206000209050919050565b60006020601f8301049050919050565b600082821b905092915050565b60006008830262001ccf7fffffffffffffffffffffffffffffffffffffffffffffffffffffffffffffffff8262001c90565b62001cdb868362001c90565b95508019841693508086168417925050509392505050565b6000819050919050565b600062001d1e62001d1862001d128462001574565b62001cf3565b62001574565b9050919050565b6000819050919050565b62001d3a8362001cfd565b62001d5262001d498262001d25565b84845462001c9d565b825550505050565b600090565b62001d6962001d5a565b62001d7681848462001d2f565b505050565b5b8181101562001d9e5762001d9260008262001d5f565b60018101905062001d7c565b5050565b601f82111562001ded5762001db78162001c6b565b62001dc28462001c80565b8101602085101562001dd2578190505b62001dea62001de18562001c80565b83018262001d7b565b50505b505050565b600082821c905092915050565b600062001e126000198460080262001df2565b1980831691505092915050565b600062001e2d838362001dff565b9150826002028217905092915050565b62001e48826200183e565b67ffffffffffffffff81111562001e645762001e63620016a6565b5b62001e70825462001c36565b62001e7d82828562001da2565b600060209050601f83116001811462001eb5576000841562001ea0578287015190505b62001eac858262001e1f565b86555062001f1c565b601f19841662001ec58662001c6b565b60005b8281101562001eef5784890151825560018201915060208501945060208101905062001ec8565b8683101562001f0f578489015162001f0b601f89168262001dff565b8355505b6001600288020188555050505b505050505050565b600062001f318262001574565b915062001f3e8362001574565b925082820390508181111562001f595762001f5862001b8b565b5b92915050565b7f4e487b7100000000000000000000000000000000000000000000000000000000600052603160045260246000fd5b7f766f746572206973206e6f7420726567697374657265642e0000000000000000600082015250565b600062001fc660188362001849565b915062001fd38262001f8e565b602082019050919050565b6000602082019050818103600083015262001ff98162001fb7565b9050919050565b7f20566f7465722068617320616c726561647920766f7465642e00000000000000600082015250565b60006200203860198362001849565b9150620020458262002000565b602082019050919050565b600060208201905081810360008301526200206b8162002029565b9050919050565b600081549050919050565b600082825260208201905092915050565b60008190508160005260206000209050919050565b600082825260208201905092915050565b60008154620020c38162001c36565b620020cf8186620020a3565b94506001821660008114620020ed576001811462002104576200213b565b60ff1983168652811515602002860193506200213b565b6200210f8562001c6b565b60005b83811015620021335781548189015260018201915060208101905062002112565b808801955050505b50505092915050565b6000620021528383620020b4565b905092915050565b6000600182019050919050565b6000620021748262002072565b6200218081856200207d565b93508360208202850162002194856200208e565b8060005b85811015620021d557848403895281620021b3858262002144565b9450620021c0836200215a565b925060208a0199505060018101905062002198565b50829750879550505050505092915050565b600082825260208201905092915050565b600062002205826200183e565b620022118185620021e7565b9350620022238185602086016200185a565b6200222e8162001695565b840191505092915050565b6000604082019050818103600083015262002255818562002167565b905081810360208301526200226b8184620021f8565b90509392505050565b600060ff82169050919050565b6200228c8162002274565b81146200229857600080fd5b50565b600081519050620022ac8162002281565b92915050565b600060208284031215620022cb57620022ca62001681565b5b6000620022db848285016200229b565b91505092915050565b6000620022f18262001574565b9150620022fe8362001574565b925082820190508082111562002319576200231862001b8b565b5b92915050565b6000604082019050620023366000830185620018c7565b81810360208301526200234a818462001886565b9050939250505056fe60806040523480156200001157600080fd5b50604051620022d8380380620022d8833981810160405281019062000037919062000264565b336000806101000a81548173ffffffffffffffffffffffffffffffffffffffff021916908373ffffffffffffffffffffffffffffffffffffffff160217905550806001908162000088919062000500565b5033600260006101000a81548173ffffffffffffffffffffffffffffffffffffffff021916908373ffffffffffffffffffffffffffffffffffffffff16021790555050620005e7565b6000604051905090565b600080fd5b600080fd5b600080fd5b600080fd5b6000601f19601f8301169050919050565b7f4e487b7100000000000000000000000000000000000000000000000000000000600052604160045260246000fd5b6200013a82620000ef565b810181811067ffffffffffffffff821117156200015c576200015b62000100565b5b80604052505050565b600062000171620000d1565b90506200017f82826200012f565b919050565b600067ffffffffffffffff821115620001a257620001a162000100565b5b620001ad82620000ef565b9050602081019050919050565b60005b83811015620001da578082015181840152602081019050620001bd565b60008484015250505050565b6000620001fd620001f78462000184565b62000165565b9050828152602081018484840111156200021c576200021b620000ea565b5b62000229848285620001ba565b509392505050565b600082601f830112620002495762000248620000e5565b5b81516200025b848260208601620001e6565b91505092915050565b6000602082840312156200027d576200027c620000db565b5b600082015167ffffffffffffffff8111156200029e576200029d620000e0565b5b620002ac8482850162000231565b91505092915050565b600081519050919050565b7f4e487b7100000000000000000000000000000000000000000000000000000000600052602260045260246000fd5b600060028204905060018216806200030857607f821691505b6020821081036200031e576200031d620002c0565b5b50919050565b60008190508160005260206000209050919050565b60006020601f8301049050919050565b600082821b905092915050565b600060088302620003887fffffffffffffffffffffffffffffffffffffffffffffffffffffffffffffffff8262000349565b62000394868362000349565b95508019841693508086168417925050509392505050565b6000819050919050565b6000819050919050565b6000620003e1620003db620003d584620003ac565b620003b6565b620003ac565b9050919050565b6000819050919050565b620003fd83620003c0565b620004156200040c82620003e8565b84845462000356565b825550505050565b600090565b6200042c6200041d565b62000439818484620003f2565b505050565b5b8181101562000461576200045560008262000422565b6001810190506200043f565b5050565b601f821115620004b0576200047a8162000324565b620004858462000339565b8101602085101562000495578190505b620004ad620004a48562000339565b8301826200043e565b50505b505050565b600082821c905092915050565b6000620004d560001984600802620004b5565b1980831691505092915050565b6000620004f08383620004c2565b9150826002028217905092915050565b6200050b82620002b5565b67ffffffffffffffff81111562000527576200052662000100565b5b620005338254620002ef565b6200054082828562000465565b600060209050601f83116001811462000578576000841562000563578287015190505b6200056f8582620004e2565b865550620005df565b601f198416620005888662000324565b60005b82811015620005b2578489015182556001820191506020850194506020810190506200058b565b86831015620005d25784890151620005ce601f891682620004c2565b8355505b6001600288020188555050505b505050505050565b611ce180620005f76000396000f3fe608060405234801561001057600080fd5b50600436106100b45760003560e01c80639cc2d993116100715780639cc2d9931461018e578063a3ec138d146101aa578063b94617d5146101da578063d8bff5a5146101f6578063ed836bc314610226578063faaef9b814610245576100b4565b80630dc96015146100b957806313e038f9146100d757806338db6dd3146101085780634704d8ec146101245780637ed17751146101545780638da5cb5b14610170575b600080fd5b6100c1610275565b6040516100ce9190611174565b60405180910390f35b6100f160048036038101906100ec91906112f0565b61053e565b6040516100ff9291906113c7565b60405180910390f35b610122600480360381019061011d9190611423565b61064d565b005b61013e6004803603810190610139919061147c565b6107f1565b60405161014b91906114a9565b60405180910390f35b61016e60048036038101906101699190611423565b61089d565b005b610178610b66565b60405161018591906114cb565b60405180910390f35b6101a860048036038101906101a391906112f0565b610b8a565b005b6101c460048036038101906101bf9190611423565b610e11565b6040516101d19190611501565b60405180910390f35b6101f460048036038101906101ef91906112f0565b610e31565b005b610210600480360381019061020b9190611423565b610ef8565b60405161021d919061152b565b60405180910390f35b61022e610f10565b60405161023c9291906113c7565b60405180910390f35b61025f600480360381019061025a919061147c565b610fcd565b60405161026c91906114cb565b60405180910390f35b60606000805b600680549050811015610340576001151560036000600684815481106102a4576102a3611546565b5b9060005260206000200160009054906101000a900473ffffffffffffffffffffffffffffffffffffffff1673ffffffffffffffffffffffffffffffffffffffff1673ffffffffffffffffffffffffffffffffffffffff16815260200190815260200160002060009054906101000a900460ff1615150361032d578180610329906115a4565b9250505b8080610338906115a4565b91505061027b565b5060008167ffffffffffffffff81111561035d5761035c6111c5565b5b60405190808252806020026020018201604052801561039657816020015b61038361100c565b81526020019060019003908161037b5790505b5090506000805b600680549050811015610534576001151560036000600684815481106103c6576103c5611546565b5b9060005260206000200160009054906101000a900473ffffffffffffffffffffffffffffffffffffffff1673ffffffffffffffffffffffffffffffffffffffff1673ffffffffffffffffffffffffffffffffffffffff16815260200190815260200160002060009054906101000a900460ff161515036105215760006006828154811061045657610455611546565b5b9060005260206000200160009054906101000a900473ffffffffffffffffffffffffffffffffffffffff1690506000600460008373ffffffffffffffffffffffffffffffffffffffff1673ffffffffffffffffffffffffffffffffffffffff16815260200190815260200160002054905060405180604001604052808373ffffffffffffffffffffffffffffffffffffffff1681526020018281525085858151811061050557610504611546565b5b6020026020010181905250838061051b906115a4565b94505050505b808061052c906115a4565b91505061039d565b5081935050505090565b60606000826001908161055191906117f8565b5033600260006101000a81548173ffffffffffffffffffffffffffffffffffffffff021916908373ffffffffffffffffffffffffffffffffffffffff1602179055506001600260009054906101000a900473ffffffffffffffffffffffffffffffffffffffff168180546105c49061161b565b80601f01602080910402602001604051908101604052809291908181526020018280546105f09061161b565b801561063d5780601f106106125761010080835404028352916020019161063d565b820191906000526020600020905b81548152906001019060200180831161062057829003601f168201915b5050505050915091509150915091565b60008054906101000a900473ffffffffffffffffffffffffffffffffffffffff1673ffffffffffffffffffffffffffffffffffffffff163373ffffffffffffffffffffffffffffffffffffffff16146106a557600080fd5b600360008273ffffffffffffffffffffffffffffffffffffffff1673ffffffffffffffffffffffffffffffffffffffff16815260200190815260200160002060009054906101000a900460ff16156106fc57600080fd5b6001600360008373ffffffffffffffffffffffffffffffffffffffff1673ffffffffffffffffffffffffffffffffffffffff16815260200190815260200160002060006101000a81548160ff0219169083151502179055506006819080600181540180825580915050600190039060005260206000200160009091909190916101000a81548173ffffffffffffffffffffffffffffffffffffffff021916908373ffffffffffffffffffffffffffffffffffffffff1602179055507fb46705364affca1eb6838310d9b3cb8b788f258ebf0128fc8dd51a0996fb0557816040516107e691906114cb565b60405180910390a150565b6005818154811061080157600080fd5b90600052602060002001600091509050805461081c9061161b565b80601f01602080910402602001604051908101604052809291908181526020018280546108489061161b565b80156108955780601f1061086a57610100808354040283529160200191610895565b820191906000526020600020905b81548152906001019060200180831161087857829003601f168201915b505050505081565b60008054906101000a900473ffffffffffffffffffffffffffffffffffffffff1673ffffffffffffffffffffffffffffffffffffffff163373ffffffffffffffffffffffffffffffffffffffff16146108f557600080fd5b600360008273ffffffffffffffffffffffffffffffffffffffff1673ffffffffffffffffffffffffffffffffffffffff16815260200190815260200160002060009054906101000a900460ff1661094b57600080fd5b6000600360008373ffffffffffffffffffffffffffffffffffffffff1673ffffffffffffffffffffffffffffffffffffffff16815260200190815260200160002060006101000a81548160ff02191690831515021790555060005b600680549050811015610b2b578173ffffffffffffffffffffffffffffffffffffffff16600682815481106109de576109dd611546565b5b9060005260206000200160009054906101000a900473ffffffffffffffffffffffffffffffffffffffff1673ffffffffffffffffffffffffffffffffffffffff1603610b185760066001600680549050610a3891906118ca565b81548110610a4957610a48611546565b5b9060005260206000200160009054906101000a900473ffffffffffffffffffffffffffffffffffffffff1660068281548110610a8857610a87611546565b5b9060005260206000200160006101000a81548173ffffffffffffffffffffffffffffffffffffffff021916908373ffffffffffffffffffffffffffffffffffffffff1602179055506006805480610ae257610ae16118fe565b5b6001900381819060005260206000200160006101000a81549073ffffffffffffffffffffffffffffffffffffffff021916905590555b8080610b23906115a4565b9150506109a6565b507feb73c070e497672efd6ec8d28c7d42094c17cf80d13d9dab4766e5b97017a6f481604051610b5b91906114cb565b60405180910390a150565b60008054906101000a900473ffffffffffffffffffffffffffffffffffffffff1681565b600360003373ffffffffffffffffffffffffffffffffffffffff1673ffffffffffffffffffffffffffffffffffffffff16815260200190815260200160002060009054906101000a900460ff16610c16576040517f08c379a0000000000000000000000000000000000000000000000000000000008152600401610c0d90611979565b60405180910390fd5b6000600460003373ffffffffffffffffffffffffffffffffffffffff1673ffffffffffffffffffffffffffffffffffffffff1681526020019081526020016000205414610c98576040517f08c379a0000000000000000000000000000000000000000000000000000000008152600401610c8f906119e5565b60405180910390fd5b73__$de54dc1c421adc6f0c4b61e1985e2a322a$__63348ed3c46005836040518363ffffffff1660e01b8152600401610cd2929190611baa565b60006040518083038186803b158015610cea57600080fd5b505af4158015610cfe573d6000803e3d6000fd5b50505050600073__$de54dc1c421adc6f0c4b61e1985e2a322a$__63fe5eb5f76005846040518363ffffffff1660e01b8152600401610d3e929190611baa565b602060405180830381865af4158015610d5b573d6000803e3d6000fd5b505050506040513d601f19601f82011682018060405250810190610d7f9190611c1a565b60ff169050600181610d919190611c47565b600460003373ffffffffffffffffffffffffffffffffffffffff1673ffffffffffffffffffffffffffffffffffffffff168152602001908152602001600020819055507f14dab1280774b2e01063b9bd194757b0fb5c1304d26906874719f08539ab9ed13383604051610e05929190611c7b565b60405180910390a15050565b60036020528060005260406000206000915054906101000a900460ff1681565b60008054906101000a900473ffffffffffffffffffffffffffffffffffffffff1673ffffffffffffffffffffffffffffffffffffffff163373ffffffffffffffffffffffffffffffffffffffff1614610e8957600080fd5b600581908060018154018082558091505060019003906000526020600020016000909190919091509081610ebd91906117f8565b507f39d0cd849bf30c1a09c13386d1a81da085bda2ae8a28c3a99925d85d71790abf81604051610eed91906114a9565b60405180910390a150565b60046020528060005260406000206000915090505481565b606060006001600260009054906101000a900473ffffffffffffffffffffffffffffffffffffffff16818054610f459061161b565b80601f0160208091040260200160405190810160405280929190818152602001828054610f719061161b565b8015610fbe5780601f10610f9357610100808354040283529160200191610fbe565b820191906000526020600020905b815481529060010190602001808311610fa157829003601f168201915b50505050509150915091509091565b60068181548110610fdd57600080fd5b906000526020600020016000915054906101000a900473ffffffffffffffffffffffffffffffffffffffff1681565b6040518060400160405280600073ffffffffffffffffffffffffffffffffffffffff168152602001600081525090565b600081519050919050565b600082825260208201905092915050565b6000819050602082019050919050565b600073ffffffffffffffffffffffffffffffffffffffff82169050919050565b600061109382611068565b9050919050565b6110a381611088565b82525050565b6000819050919050565b6110bc816110a9565b82525050565b6040820160008201516110d8600085018261109a565b5060208201516110eb60208501826110b3565b50505050565b60006110fd83836110c2565b60408301905092915050565b6000602082019050919050565b60006111218261103c565b61112b8185611047565b935061113683611058565b8060005b8381101561116757815161114e88826110f1565b975061115983611109565b92505060018101905061113a565b5085935050505092915050565b6000602082019050818103600083015261118e8184611116565b905092915050565b6000604051905090565b600080fd5b600080fd5b600080fd5b600080fd5b6000601f19601f8301169050919050565b7f4e487b7100000000000000000000000000000000000000000000000000000000600052604160045260246000fd5b6111fd826111b4565b810181811067ffffffffffffffff8211171561121c5761121b6111c5565b5b80604052505050565b600061122f611196565b905061123b82826111f4565b919050565b600067ffffffffffffffff82111561125b5761125a6111c5565b5b611264826111b4565b9050602081019050919050565b82818337600083830152505050565b600061129361128e84611240565b611225565b9050828152602081018484840111156112af576112ae6111af565b5b6112ba848285611271565b509392505050565b600082601f8301126112d7576112d66111aa565b5b81356112e7848260208601611280565b91505092915050565b600060208284031215611306576113056111a0565b5b600082013567ffffffffffffffff811115611324576113236111a5565b5b611330848285016112c2565b91505092915050565b600081519050919050565b600082825260208201905092915050565b60005b83811015611373578082015181840152602081019050611358565b60008484015250505050565b600061138a82611339565b6113948185611344565b93506113a4818560208601611355565b6113ad816111b4565b840191505092915050565b6113c181611088565b82525050565b600060408201905081810360008301526113e1818561137f565b90506113f060208301846113b8565b9392505050565b61140081611088565b811461140b57600080fd5b50565b60008135905061141d816113f7565b92915050565b600060208284031215611439576114386111a0565b5b60006114478482850161140e565b91505092915050565b611459816110a9565b811461146457600080fd5b50565b60008135905061147681611450565b92915050565b600060208284031215611492576114916111a0565b5b60006114a084828501611467565b91505092915050565b600060208201905081810360008301526114c3818461137f565b905092915050565b60006020820190506114e060008301846113b8565b92915050565b60008115159050919050565b6114fb816114e6565b82525050565b600060208201905061151660008301846114f2565b92915050565b611525816110a9565b82525050565b6000602082019050611540600083018461151c565b92915050565b7f4e487b7100000000000000000000000000000000000000000000000000000000600052603260045260246000fd5b7f4e487b7100000000000000000000000000000000000000000000000000000000600052601160045260246000fd5b60006115af826110a9565b91507fffffffffffffffffffffffffffffffffffffffffffffffffffffffffffffffff82036115e1576115e0611575565b5b600182019050919050565b7f4e487b7100000000000000000000000000000000000000000000000000000000600052602260045260246000fd5b6000600282049050600182168061163357607f821691505b602082108103611646576116456115ec565b5b50919050565b60008190508160005260206000209050919050565b60006020601f8301049050919050565b600082821b905092915050565b6000600883026116ae7fffffffffffffffffffffffffffffffffffffffffffffffffffffffffffffffff82611671565b6116b88683611671565b95508019841693508086168417925050509392505050565b6000819050919050565b60006116f56116f06116eb846110a9565b6116d0565b6110a9565b9050919050565b6000819050919050565b61170f836116da565b61172361171b826116fc565b84845461167e565b825550505050565b600090565b61173861172b565b611743818484611706565b505050565b5b818110156117675761175c600082611730565b600181019050611749565b5050565b601f8211156117ac5761177d8161164c565b61178684611661565b81016020851015611795578190505b6117a96117a185611661565b830182611748565b50505b505050565b600082821c905092915050565b60006117cf600019846008026117b1565b1980831691505092915050565b60006117e883836117be565b9150826002028217905092915050565b61180182611339565b67ffffffffffffffff81111561181a576118196111c5565b5b611824825461161b565b61182f82828561176b565b600060209050601f8311600181146118625760008415611850578287015190505b61185a85826117dc565b8655506118c2565b601f1984166118708661164c565b60005b8281101561189857848901518255600182019150602085019450602081019050611873565b868310156118b557848901516118b1601f8916826117be565b8355505b6001600288020188555050505b505050505050565b60006118d5826110a9565b91506118e0836110a9565b92508282039050818111156118f8576118f7611575565b5b92915050565b7f4e487b7100000000000000000000000000000000000000000000000000000000600052603160045260246000fd5b7f766f746572206973206e6f7420726567697374657265642e0000000000000000600082015250565b6000611963601883611344565b915061196e8261192d565b602082019050919050565b6000602082019050818103600083015261199281611956565b9050919050565b7f20566f7465722068617320616c726561647920766f7465642e00000000000000600082015250565b60006119cf601983611344565b91506119da82611999565b602082019050919050565b600060208201905081810360008301526119fe816119c2565b9050919050565b600081549050919050565b600082825260208201905092915050565b60008190508160005260206000209050919050565b600082825260208201905092915050565b60008154611a548161161b565b611a5e8186611a36565b94506001821660008114611a795760018114611a8f57611ac2565b60ff198316865281151560200286019350611ac2565b611a988561164c565b60005b83811015611aba57815481890152600182019150602081019050611a9b565b808801955050505b50505092915050565b6000611ad78383611a47565b905092915050565b6000600182019050919050565b6000611af782611a05565b611b018185611a10565b935083602082028501611b1385611a21565b8060005b85811015611b4e57848403895281611b2f8582611acb565b9450611b3a83611adf565b925060208a01995050600181019050611b17565b50829750879550505050505092915050565b600082825260208201905092915050565b6000611b7c82611339565b611b868185611b60565b9350611b96818560208601611355565b611b9f816111b4565b840191505092915050565b60006040820190508181036000830152611bc48185611aec565b90508181036020830152611bd88184611b71565b90509392505050565b600060ff82169050919050565b611bf781611be1565b8114611c0257600080fd5b50565b600081519050611c1481611bee565b92915050565b600060208284031215611c3057611c2f6111a0565b5b6000611c3e84828501611c05565b91505092915050565b6000611c52826110a9565b9150611c5d836110a9565b9250828201905080821115611c7557611c74611575565b5b92915050565b6000604082019050611c9060008301856113b8565b8181036020830152611ca2818461137f565b9050939250505056fea264697066735822122080f2f8b16af42f25a4372b30f7bd384c95d4249416003d342bf2502b188f378664736f6c63430008110033a2646970667358221220398c2a9560238e8bb30d032e6165cccf43f0d3a85889ed223cee9a234321935464736f6c63430008110033",
  "linkReferences": {
    "contracts/checker.sol": {
      "checker": [
        {
          "length": 20,
          "start": 5402
        },
        {
          "length": 20,
          "start": 5514
        },
        {
          "length": 20,
          "start": 14866
        },
        {
          "length": 20,
          "start": 14974
        }
      ]
    }
  },
  "deployedLinkReferences": {
    "contracts/checker.sol": {
      "checker": [
        {
          "length": 20,
          "start": 4333
        },
        {
          "length": 20,
          "start": 4445
        },
        {
          "length": 20,
          "start": 13797
        },
        {
          "length": 20,
          "start": 13905
        }
      ]
    }
  }
}