{
  "_format": "hh-sol-artifact-1",
  "contractName": "Voting",
  "sourceName": "contracts/voting.sol",
  "abi": [
    {
      "inputs": [
        {
          "internalType": "string",
          "name": "_electionName",
          "type": "string"
        }
      ],
      "stateMutability": "nonpayable",
      "type": "constructor"
    },
    {
      "anonymous": false,
      "inputs": [
        {
          "indexed": false,
          "internalType": "string",
          "name": "voteOption",
          "type": "string"
        }
      ],
      "name": "addedVoteOption",
      "type": "event"
    },
    {
      "anonymous": false,
      "inputs": [
        {
          "indexed": false,
          "internalType": "address",
          "name": "voter",
          "type": "address"
        },
        {
          "indexed": false,
          "internalType": "string",
          "name": "voteOption",
          "type": "string"
        }
      ],
      "name": "newVote",
      "type": "event"
    },
    {
      "anonymous": false,
      "inputs": [
        {
          "indexed": false,
          "internalType": "address",
          "name": "voterAddress",
          "type": "address"
        }
      ],
      "name": "newVoterAdded",
      "type": "event"
    },
    {
      "anonymous": false,
      "inputs": [
        {
          "indexed": false,
          "internalType": "address",
          "name": "voterAddress",
          "type": "address"
        }
      ],
      "name": "voterRemoved",
      "type": "event"
    },
    {
      "inputs": [
        {
          "internalType": "string",
          "name": "option",
          "type": "string"
        }
      ],
      "name": "addVoteOption",
      "outputs": [],
      "stateMutability": "nonpayable",
      "type": "function"
    },
    {
      "inputs": [
        {
          "internalType": "uint256",
          "name": "",
          "type": "uint256"
        }
      ],
      "name": "allowedVoters",
      "outputs": [
        {
          "internalType": "address",
          "name": "",
          "type": "address"
        }
      ],
      "stateMutability": "view",
      "type": "function"
    },
    {
      "inputs": [
        {
          "internalType": "string",
          "name": "option",
          "type": "string"
        }
      ],
      "name": "castVote",
      "outputs": [],
      "stateMutability": "nonpayable",
      "type": "function"
    },
    {
      "inputs": [],
      "name": "getElectionDetails",
      "outputs": [
        {
          "internalType": "string",
          "name": "",
          "type": "string"
        },
        {
          "internalType": "address",
          "name": "",
          "type": "address"
        }
      ],
      "stateMutability": "view",
      "type": "function"
    },
    {
      "inputs": [],
      "name": "getVotes",
      "outputs": [
        {
          "components": [
            {
              "internalType": "address",
              "name": "validVoter",
              "type": "address"
            },
            {
              "internalType": "uint256",
              "name": "votedFor",
              "type": "uint256"
            }
          ],
          "internalType": "struct Voting.voterAndVotes[]",
          "name": "",
          "type": "tuple[]"
        }
      ],
      "stateMutability": "view",
      "type": "function"
    },
    {
      "inputs": [],
      "name": "owner",
      "outputs": [
        {
          "internalType": "address",
          "name": "",
          "type": "address"
        }
      ],
      "stateMutability": "view",
      "type": "function"
    },
    {
      "inputs": [
        {
          "internalType": "address",
          "name": "voter",
          "type": "address"
        }
      ],
      "name": "registerVoter",
      "outputs": [],
      "stateMutability": "nonpayable",
      "type": "function"
    },
    {
      "inputs": [
        {
          "internalType": "string",
          "name": "_electionName",
          "type": "string"
        }
      ],
      "name": "setElectionDetails",
      "outputs": [
        {
          "internalType": "string",
          "name": "",
          "type": "string"
        },
        {
          "internalType": "address",
          "name": "",
          "type": "address"
        }
      ],
      "stateMutability": "nonpayable",
      "type": "function"
    },
    {
      "inputs": [
        {
          "internalType": "address",
          "name": "voter",
          "type": "address"
        }
      ],
      "name": "unregisterVoter",
      "outputs": [],
      "stateMutability": "nonpayable",
      "type": "function"
    },
    {
      "inputs": [
        {
          "internalType": "uint256",
          "name": "",
          "type": "uint256"
        }
      ],
      "name": "voteOptions",
      "outputs": [
        {
          "internalType": "string",
          "name": "",
          "type": "string"
        }
      ],
      "stateMutability": "view",
      "type": "function"
    },
    {
      "inputs": [
        {
          "internalType": "address",
          "name": "",
          "type": "address"
        }
      ],
      "name": "voters",
      "outputs": [
        {
          "internalType": "bool",
          "name": "",
          "type": "bool"
        }
      ],
      "stateMutability": "view",
      "type": "function"
    },
    {
      "inputs": [
        {
          "internalType": "address",
          "name": "",
          "type": "address"
        }
      ],
      "name": "votes",
      "outputs": [
        {
          "internalType": "uint256",
          "name": "",
          "type": "uint256"
        }
      ],
      "stateMutability": "view",
      "type": "function"
    }
  ],
  "bytecode": "0x60806040523480156200001157600080fd5b50604051620022d8380380620022d8833981810160405281019062000037919062000264565b336000806101000a81548173ffffffffffffffffffffffffffffffffffffffff021916908373ffffffffffffffffffffffffffffffffffffffff160217905550806001908162000088919062000500565b5033600260006101000a81548173ffffffffffffffffffffffffffffffffffffffff021916908373ffffffffffffffffffffffffffffffffffffffff16021790555050620005e7565b6000604051905090565b600080fd5b600080fd5b600080fd5b600080fd5b6000601f19601f8301169050919050565b7f4e487b7100000000000000000000000000000000000000000000000000000000600052604160045260246000fd5b6200013a82620000ef565b810181811067ffffffffffffffff821117156200015c576200015b62000100565b5b80604052505050565b600062000171620000d1565b90506200017f82826200012f565b919050565b600067ffffffffffffffff821115620001a257620001a162000100565b5b620001ad82620000ef565b9050602081019050919050565b60005b83811015620001da578082015181840152602081019050620001bd565b60008484015250505050565b6000620001fd620001f78462000184565b62000165565b9050828152602081018484840111156200021c576200021b620000ea565b5b62000229848285620001ba565b509392505050565b600082601f830112620002495762000248620000e5565b5b81516200025b848260208601620001e6565b91505092915050565b6000602082840312156200027d576200027c620000db565b5b600082015167ffffffffffffffff8111156200029e576200029d620000e0565b5b620002ac8482850162000231565b91505092915050565b600081519050919050565b7f4e487b7100000000000000000000000000000000000000000000000000000000600052602260045260246000fd5b600060028204905060018216806200030857607f821691505b6020821081036200031e576200031d620002c0565b5b50919050565b60008190508160005260206000209050919050565b60006020601f8301049050919050565b600082821b905092915050565b600060088302620003887fffffffffffffffffffffffffffffffffffffffffffffffffffffffffffffffff8262000349565b62000394868362000349565b95508019841693508086168417925050509392505050565b6000819050919050565b6000819050919050565b6000620003e1620003db620003d584620003ac565b620003b6565b620003ac565b9050919050565b6000819050919050565b620003fd83620003c0565b620004156200040c82620003e8565b84845462000356565b825550505050565b600090565b6200042c6200041d565b62000439818484620003f2565b505050565b5b8181101562000461576200045560008262000422565b6001810190506200043f565b5050565b601f821115620004b0576200047a8162000324565b620004858462000339565b8101602085101562000495578190505b620004ad620004a48562000339565b8301826200043e565b50505b505050565b600082821c905092915050565b6000620004d560001984600802620004b5565b1980831691505092915050565b6000620004f08383620004c2565b9150826002028217905092915050565b6200050b82620002b5565b67ffffffffffffffff81111562000527576200052662000100565b5b620005338254620002ef565b6200054082828562000465565b600060209050601f83116001811462000578576000841562000563578287015190505b6200056f8582620004e2565b865550620005df565b601f198416620005888662000324565b60005b82811015620005b2578489015182556001820191506020850194506020810190506200058b565b86831015620005d25784890151620005ce601f891682620004c2565b8355505b6001600288020188555050505b505050505050565b611ce180620005f76000396000f3fe608060405234801561001057600080fd5b50600436106100b45760003560e01c80639cc2d993116100715780639cc2d9931461018e578063a3ec138d146101aa578063b94617d5146101da578063d8bff5a5146101f6578063ed836bc314610226578063faaef9b814610245576100b4565b80630dc96015146100b957806313e038f9146100d757806338db6dd3146101085780634704d8ec146101245780637ed17751146101545780638da5cb5b14610170575b600080fd5b6100c1610275565b6040516100ce9190611174565b60405180910390f35b6100f160048036038101906100ec91906112f0565b61053e565b6040516100ff9291906113c7565b60405180910390f35b610122600480360381019061011d9190611423565b61064d565b005b61013e6004803603810190610139919061147c565b6107f1565b60405161014b91906114a9565b60405180910390f35b61016e60048036038101906101699190611423565b61089d565b005b610178610b66565b60405161018591906114cb565b60405180910390f35b6101a860048036038101906101a391906112f0565b610b8a565b005b6101c460048036038101906101bf9190611423565b610e11565b6040516101d19190611501565b60405180910390f35b6101f460048036038101906101ef91906112f0565b610e31565b005b610210600480360381019061020b9190611423565b610ef8565b60405161021d919061152b565b60405180910390f35b61022e610f10565b60405161023c9291906113c7565b60405180910390f35b61025f600480360381019061025a919061147c565b610fcd565b60405161026c91906114cb565b60405180910390f35b60606000805b600680549050811015610340576001151560036000600684815481106102a4576102a3611546565b5b9060005260206000200160009054906101000a900473ffffffffffffffffffffffffffffffffffffffff1673ffffffffffffffffffffffffffffffffffffffff1673ffffffffffffffffffffffffffffffffffffffff16815260200190815260200160002060009054906101000a900460ff1615150361032d578180610329906115a4565b9250505b8080610338906115a4565b91505061027b565b5060008167ffffffffffffffff81111561035d5761035c6111c5565b5b60405190808252806020026020018201604052801561039657816020015b61038361100c565b81526020019060019003908161037b5790505b5090506000805b600680549050811015610534576001151560036000600684815481106103c6576103c5611546565b5b9060005260206000200160009054906101000a900473ffffffffffffffffffffffffffffffffffffffff1673ffffffffffffffffffffffffffffffffffffffff1673ffffffffffffffffffffffffffffffffffffffff16815260200190815260200160002060009054906101000a900460ff161515036105215760006006828154811061045657610455611546565b5b9060005260206000200160009054906101000a900473ffffffffffffffffffffffffffffffffffffffff1690506000600460008373ffffffffffffffffffffffffffffffffffffffff1673ffffffffffffffffffffffffffffffffffffffff16815260200190815260200160002054905060405180604001604052808373ffffffffffffffffffffffffffffffffffffffff1681526020018281525085858151811061050557610504611546565b5b6020026020010181905250838061051b906115a4565b94505050505b808061052c906115a4565b91505061039d565b5081935050505090565b60606000826001908161055191906117f8565b5033600260006101000a81548173ffffffffffffffffffffffffffffffffffffffff021916908373ffffffffffffffffffffffffffffffffffffffff1602179055506001600260009054906101000a900473ffffffffffffffffffffffffffffffffffffffff168180546105c49061161b565b80601f01602080910402602001604051908101604052809291908181526020018280546105f09061161b565b801561063d5780601f106106125761010080835404028352916020019161063d565b820191906000526020600020905b81548152906001019060200180831161062057829003601f168201915b5050505050915091509150915091565b60008054906101000a900473ffffffffffffffffffffffffffffffffffffffff1673ffffffffffffffffffffffffffffffffffffffff163373ffffffffffffffffffffffffffffffffffffffff16146106a557600080fd5b600360008273ffffffffffffffffffffffffffffffffffffffff1673ffffffffffffffffffffffffffffffffffffffff16815260200190815260200160002060009054906101000a900460ff16156106fc57600080fd5b6001600360008373ffffffffffffffffffffffffffffffffffffffff1673ffffffffffffffffffffffffffffffffffffffff16815260200190815260200160002060006101000a81548160ff0219169083151502179055506006819080600181540180825580915050600190039060005260206000200160009091909190916101000a81548173ffffffffffffffffffffffffffffffffffffffff021916908373ffffffffffffffffffffffffffffffffffffffff1602179055507fb46705364affca1eb6838310d9b3cb8b788f258ebf0128fc8dd51a0996fb0557816040516107e691906114cb565b60405180910390a150565b6005818154811061080157600080fd5b90600052602060002001600091509050805461081c9061161b565b80601f01602080910402602001604051908101604052809291908181526020018280546108489061161b565b80156108955780601f1061086a57610100808354040283529160200191610895565b820191906000526020600020905b81548152906001019060200180831161087857829003601f168201915b505050505081565b60008054906101000a900473ffffffffffffffffffffffffffffffffffffffff1673ffffffffffffffffffffffffffffffffffffffff163373ffffffffffffffffffffffffffffffffffffffff16146108f557600080fd5b600360008273ffffffffffffffffffffffffffffffffffffffff1673ffffffffffffffffffffffffffffffffffffffff16815260200190815260200160002060009054906101000a900460ff1661094b57600080fd5b6000600360008373ffffffffffffffffffffffffffffffffffffffff1673ffffffffffffffffffffffffffffffffffffffff16815260200190815260200160002060006101000a81548160ff02191690831515021790555060005b600680549050811015610b2b578173ffffffffffffffffffffffffffffffffffffffff16600682815481106109de576109dd611546565b5b9060005260206000200160009054906101000a900473ffffffffffffffffffffffffffffffffffffffff1673ffffffffffffffffffffffffffffffffffffffff1603610b185760066001600680549050610a3891906118ca565b81548110610a4957610a48611546565b5b9060005260206000200160009054906101000a900473ffffffffffffffffffffffffffffffffffffffff1660068281548110610a8857610a87611546565b5b9060005260206000200160006101000a81548173ffffffffffffffffffffffffffffffffffffffff021916908373ffffffffffffffffffffffffffffffffffffffff1602179055506006805480610ae257610ae16118fe565b5b6001900381819060005260206000200160006101000a81549073ffffffffffffffffffffffffffffffffffffffff021916905590555b8080610b23906115a4565b9150506109a6565b507feb73c070e497672efd6ec8d28c7d42094c17cf80d13d9dab4766e5b97017a6f481604051610b5b91906114cb565b60405180910390a150565b60008054906101000a900473ffffffffffffffffffffffffffffffffffffffff1681565b600360003373ffffffffffffffffffffffffffffffffffffffff1673ffffffffffffffffffffffffffffffffffffffff16815260200190815260200160002060009054906101000a900460ff16610c16576040517f08c379a0000000000000000000000000000000000000000000000000000000008152600401610c0d90611979565b60405180910390fd5b6000600460003373ffffffffffffffffffffffffffffffffffffffff1673ffffffffffffffffffffffffffffffffffffffff1681526020019081526020016000205414610c98576040517f08c379a0000000000000000000000000000000000000000000000000000000008152600401610c8f906119e5565b60405180910390fd5b73__$de54dc1c421adc6f0c4b61e1985e2a322a$__63348ed3c46005836040518363ffffffff1660e01b8152600401610cd2929190611baa565b60006040518083038186803b158015610cea57600080fd5b505af4158015610cfe573d6000803e3d6000fd5b50505050600073__$de54dc1c421adc6f0c4b61e1985e2a322a$__63fe5eb5f76005846040518363ffffffff1660e01b8152600401610d3e929190611baa565b602060405180830381865af4158015610d5b573d6000803e3d6000fd5b505050506040513d601f19601f82011682018060405250810190610d7f9190611c1a565b60ff169050600181610d919190611c47565b600460003373ffffffffffffffffffffffffffffffffffffffff1673ffffffffffffffffffffffffffffffffffffffff168152602001908152602001600020819055507f14dab1280774b2e01063b9bd194757b0fb5c1304d26906874719f08539ab9ed13383604051610e05929190611c7b565b60405180910390a15050565b60036020528060005260406000206000915054906101000a900460ff1681565b60008054906101000a900473ffffffffffffffffffffffffffffffffffffffff1673ffffffffffffffffffffffffffffffffffffffff163373ffffffffffffffffffffffffffffffffffffffff1614610e8957600080fd5b600581908060018154018082558091505060019003906000526020600020016000909190919091509081610ebd91906117f8565b507f39d0cd849bf30c1a09c13386d1a81da085bda2ae8a28c3a99925d85d71790abf81604051610eed91906114a9565b60405180910390a150565b60046020528060005260406000206000915090505481565b606060006001600260009054906101000a900473ffffffffffffffffffffffffffffffffffffffff16818054610f459061161b565b80601f0160208091040260200160405190810160405280929190818152602001828054610f719061161b565b8015610fbe5780601f10610f9357610100808354040283529160200191610fbe565b820191906000526020600020905b815481529060010190602001808311610fa157829003601f168201915b50505050509150915091509091565b60068181548110610fdd57600080fd5b906000526020600020016000915054906101000a900473ffffffffffffffffffffffffffffffffffffffff1681565b6040518060400160405280600073ffffffffffffffffffffffffffffffffffffffff168152602001600081525090565b600081519050919050565b600082825260208201905092915050565b6000819050602082019050919050565b600073ffffffffffffffffffffffffffffffffffffffff82169050919050565b600061109382611068565b9050919050565b6110a381611088565b82525050565b6000819050919050565b6110bc816110a9565b82525050565b6040820160008201516110d8600085018261109a565b5060208201516110eb60208501826110b3565b50505050565b60006110fd83836110c2565b60408301905092915050565b6000602082019050919050565b60006111218261103c565b61112b8185611047565b935061113683611058565b8060005b8381101561116757815161114e88826110f1565b975061115983611109565b92505060018101905061113a565b5085935050505092915050565b6000602082019050818103600083015261118e8184611116565b905092915050565b6000604051905090565b600080fd5b600080fd5b600080fd5b600080fd5b6000601f19601f8301169050919050565b7f4e487b7100000000000000000000000000000000000000000000000000000000600052604160045260246000fd5b6111fd826111b4565b810181811067ffffffffffffffff8211171561121c5761121b6111c5565b5b80604052505050565b600061122f611196565b905061123b82826111f4565b919050565b600067ffffffffffffffff82111561125b5761125a6111c5565b5b611264826111b4565b9050602081019050919050565b82818337600083830152505050565b600061129361128e84611240565b611225565b9050828152602081018484840111156112af576112ae6111af565b5b6112ba848285611271565b509392505050565b600082601f8301126112d7576112d66111aa565b5b81356112e7848260208601611280565b91505092915050565b600060208284031215611306576113056111a0565b5b600082013567ffffffffffffffff811115611324576113236111a5565b5b611330848285016112c2565b91505092915050565b600081519050919050565b600082825260208201905092915050565b60005b83811015611373578082015181840152602081019050611358565b60008484015250505050565b600061138a82611339565b6113948185611344565b93506113a4818560208601611355565b6113ad816111b4565b840191505092915050565b6113c181611088565b82525050565b600060408201905081810360008301526113e1818561137f565b90506113f060208301846113b8565b9392505050565b61140081611088565b811461140b57600080fd5b50565b60008135905061141d816113f7565b92915050565b600060208284031215611439576114386111a0565b5b60006114478482850161140e565b91505092915050565b611459816110a9565b811461146457600080fd5b50565b60008135905061147681611450565b92915050565b600060208284031215611492576114916111a0565b5b60006114a084828501611467565b91505092915050565b600060208201905081810360008301526114c3818461137f565b905092915050565b60006020820190506114e060008301846113b8565b92915050565b60008115159050919050565b6114fb816114e6565b82525050565b600060208201905061151660008301846114f2565b92915050565b611525816110a9565b82525050565b6000602082019050611540600083018461151c565b92915050565b7f4e487b7100000000000000000000000000000000000000000000000000000000600052603260045260246000fd5b7f4e487b7100000000000000000000000000000000000000000000000000000000600052601160045260246000fd5b60006115af826110a9565b91507fffffffffffffffffffffffffffffffffffffffffffffffffffffffffffffffff82036115e1576115e0611575565b5b600182019050919050565b7f4e487b7100000000000000000000000000000000000000000000000000000000600052602260045260246000fd5b6000600282049050600182168061163357607f821691505b602082108103611646576116456115ec565b5b50919050565b60008190508160005260206000209050919050565b60006020601f8301049050919050565b600082821b905092915050565b6000600883026116ae7fffffffffffffffffffffffffffffffffffffffffffffffffffffffffffffffff82611671565b6116b88683611671565b95508019841693508086168417925050509392505050565b6000819050919050565b60006116f56116f06116eb846110a9565b6116d0565b6110a9565b9050919050565b6000819050919050565b61170f836116da565b61172361171b826116fc565b84845461167e565b825550505050565b600090565b61173861172b565b611743818484611706565b505050565b5b818110156117675761175c600082611730565b600181019050611749565b5050565b601f8211156117ac5761177d8161164c565b61178684611661565b81016020851015611795578190505b6117a96117a185611661565b830182611748565b50505b505050565b600082821c905092915050565b60006117cf600019846008026117b1565b1980831691505092915050565b60006117e883836117be565b9150826002028217905092915050565b61180182611339565b67ffffffffffffffff81111561181a576118196111c5565b5b611824825461161b565b61182f82828561176b565b600060209050601f8311600181146118625760008415611850578287015190505b61185a85826117dc565b8655506118c2565b601f1984166118708661164c565b60005b8281101561189857848901518255600182019150602085019450602081019050611873565b868310156118b557848901516118b1601f8916826117be565b8355505b6001600288020188555050505b505050505050565b60006118d5826110a9565b91506118e0836110a9565b92508282039050818111156118f8576118f7611575565b5b92915050565b7f4e487b7100000000000000000000000000000000000000000000000000000000600052603160045260246000fd5b7f766f746572206973206e6f7420726567697374657265642e0000000000000000600082015250565b6000611963601883611344565b915061196e8261192d565b602082019050919050565b6000602082019050818103600083015261199281611956565b9050919050565b7f20566f7465722068617320616c726561647920766f7465642e00000000000000600082015250565b60006119cf601983611344565b91506119da82611999565b602082019050919050565b600060208201905081810360008301526119fe816119c2565b9050919050565b600081549050919050565b600082825260208201905092915050565b60008190508160005260206000209050919050565b600082825260208201905092915050565b60008154611a548161161b565b611a5e8186611a36565b94506001821660008114611a795760018114611a8f57611ac2565b60ff198316865281151560200286019350611ac2565b611a988561164c565b60005b83811015611aba57815481890152600182019150602081019050611a9b565b808801955050505b50505092915050565b6000611ad78383611a47565b905092915050565b6000600182019050919050565b6000611af782611a05565b611b018185611a10565b935083602082028501611b1385611a21565b8060005b85811015611b4e57848403895281611b2f8582611acb565b9450611b3a83611adf565b925060208a01995050600181019050611b17565b50829750879550505050505092915050565b600082825260208201905092915050565b6000611b7c82611339565b611b868185611b60565b9350611b96818560208601611355565b611b9f816111b4565b840191505092915050565b60006040820190508181036000830152611bc48185611aec565b90508181036020830152611bd88184611b71565b90509392505050565b600060ff82169050919050565b611bf781611be1565b8114611c0257600080fd5b50565b600081519050611c1481611bee565b92915050565b600060208284031215611c3057611c2f6111a0565b5b6000611c3e84828501611c05565b91505092915050565b6000611c52826110a9565b9150611c5d836110a9565b9250828201905080821115611c7557611c74611575565b5b92915050565b6000604082019050611c9060008301856113b8565b8181036020830152611ca2818461137f565b9050939250505056fea264697066735822122080f2f8b16af42f25a4372b30f7bd384c95d4249416003d342bf2502b188f378664736f6c63430008110033",
  "linkReferences": {
    "contracts/checker.sol": {
      "checker": [
        {
          "length": 20,
          "start": 4753
        },
        {
          "length": 20,
          "start": 4861
        }
      ]
    }
  },
  "deployedLinkReferences": {
    "contracts/checker.sol": {
      "checker": [
        {
          "length": 20,
          "start": 3226
        },
        {
          "length": 20,
          "start": 3334
        }
      ]
    }
  }
}