{
  "_format": "hh-sol-artifact-1",
  "contractName": "Voting",
  "sourceName": "contracts/voting.sol",
  "abi": [
    {
      "inputs": [
        {
          "internalType": "bytes32",
          "name": "_electionName",
          "type": "bytes32"
        },
        {
          "internalType": "address",
          "name": "electionCretor",
          "type": "address"
        }
      ],
      "stateMutability": "nonpayable",
      "type": "constructor"
    },
    {
      "anonymous": false,
      "inputs": [
        {
          "indexed": false,
          "internalType": "bytes32",
          "name": "voteOption",
          "type": "bytes32"
        }
      ],
      "name": "addedVoteOption",
      "type": "event"
    },
    {
      "anonymous": false,
      "inputs": [
        {
          "indexed": false,
          "internalType": "address",
          "name": "voter",
          "type": "address"
        },
        {
          "indexed": false,
          "internalType": "bytes32",
          "name": "voteOption",
          "type": "bytes32"
        }
      ],
      "name": "newVote",
      "type": "event"
    },
    {
      "anonymous": false,
      "inputs": [
        {
          "indexed": false,
          "internalType": "address[]",
          "name": "voterAddress",
          "type": "address[]"
        }
      ],
      "name": "newVoterAdded",
      "type": "event"
    },
    {
      "anonymous": false,
      "inputs": [
        {
          "indexed": false,
          "internalType": "address",
          "name": "voterAddress",
          "type": "address"
        }
      ],
      "name": "voterRemoved",
      "type": "event"
    },
    {
      "inputs": [
        {
          "internalType": "bytes32[]",
          "name": "newOptions",
          "type": "bytes32[]"
        }
      ],
      "name": "addVoteOptions",
      "outputs": [],
      "stateMutability": "nonpayable",
      "type": "function"
    },
    {
      "inputs": [
        {
          "internalType": "uint256",
          "name": "",
          "type": "uint256"
        }
      ],
      "name": "allowedVoters",
      "outputs": [
        {
          "internalType": "address",
          "name": "",
          "type": "address"
        }
      ],
      "stateMutability": "view",
      "type": "function"
    },
    {
      "inputs": [
        {
          "internalType": "bytes32",
          "name": "option",
          "type": "bytes32"
        }
      ],
      "name": "castVote",
      "outputs": [],
      "stateMutability": "nonpayable",
      "type": "function"
    },
    {
      "inputs": [],
      "name": "electionCreator",
      "outputs": [
        {
          "internalType": "address",
          "name": "",
          "type": "address"
        }
      ],
      "stateMutability": "view",
      "type": "function"
    },
    {
      "inputs": [],
      "name": "electionName",
      "outputs": [
        {
          "internalType": "bytes32",
          "name": "",
          "type": "bytes32"
        }
      ],
      "stateMutability": "view",
      "type": "function"
    },
    {
      "inputs": [],
      "name": "getElectionDetails",
      "outputs": [
        {
          "internalType": "bytes32",
          "name": "",
          "type": "bytes32"
        },
        {
          "internalType": "address",
          "name": "",
          "type": "address"
        }
      ],
      "stateMutability": "view",
      "type": "function"
    },
    {
      "inputs": [],
      "name": "getElectionWinner",
      "outputs": [
        {
          "internalType": "bytes32",
          "name": "",
          "type": "bytes32"
        }
      ],
      "stateMutability": "view",
      "type": "function"
    },
    {
      "inputs": [
        {
          "internalType": "bytes32",
          "name": "option",
          "type": "bytes32"
        }
      ],
      "name": "getVoteOptionVoteCount",
      "outputs": [
        {
          "internalType": "uint256",
          "name": "",
          "type": "uint256"
        }
      ],
      "stateMutability": "view",
      "type": "function"
    },
    {
      "inputs": [],
      "name": "getVotes",
      "outputs": [
        {
          "components": [
            {
              "internalType": "address",
              "name": "validVoter",
              "type": "address"
            },
            {
              "internalType": "uint256",
              "name": "votedFor",
              "type": "uint256"
            }
          ],
          "internalType": "struct Voting.voterAndVotes[]",
          "name": "",
          "type": "tuple[]"
        }
      ],
      "stateMutability": "view",
      "type": "function"
    },
    {
      "inputs": [],
      "name": "owner",
      "outputs": [
        {
          "internalType": "address",
          "name": "",
          "type": "address"
        }
      ],
      "stateMutability": "view",
      "type": "function"
    },
    {
      "inputs": [
        {
          "internalType": "address[]",
          "name": "newVoter",
          "type": "address[]"
        }
      ],
      "name": "registerVoter",
      "outputs": [],
      "stateMutability": "nonpayable",
      "type": "function"
    },
    {
      "inputs": [
        {
          "internalType": "bytes32",
          "name": "_electionName",
          "type": "bytes32"
        }
      ],
      "name": "setElectionDetails",
      "outputs": [
        {
          "internalType": "bytes32",
          "name": "",
          "type": "bytes32"
        },
        {
          "internalType": "address",
          "name": "",
          "type": "address"
        }
      ],
      "stateMutability": "nonpayable",
      "type": "function"
    },
    {
      "inputs": [
        {
          "internalType": "address",
          "name": "voter",
          "type": "address"
        }
      ],
      "name": "unregisterVoter",
      "outputs": [],
      "stateMutability": "nonpayable",
      "type": "function"
    },
    {
      "inputs": [],
      "name": "viewVoteOptions",
      "outputs": [
        {
          "internalType": "bytes32[]",
          "name": "",
          "type": "bytes32[]"
        }
      ],
      "stateMutability": "view",
      "type": "function"
    },
    {
      "inputs": [],
      "name": "viewVoters",
      "outputs": [
        {
          "internalType": "address[]",
          "name": "",
          "type": "address[]"
        }
      ],
      "stateMutability": "view",
      "type": "function"
    },
    {
      "inputs": [
        {
          "internalType": "uint256",
          "name": "",
          "type": "uint256"
        }
      ],
      "name": "voteOptions",
      "outputs": [
        {
          "internalType": "bytes32",
          "name": "",
          "type": "bytes32"
        }
      ],
      "stateMutability": "view",
      "type": "function"
    },
    {
      "inputs": [
        {
          "internalType": "address",
          "name": "",
          "type": "address"
        }
      ],
      "name": "voters",
      "outputs": [
        {
          "internalType": "bool",
          "name": "",
          "type": "bool"
        }
      ],
      "stateMutability": "view",
      "type": "function"
    },
    {
      "inputs": [
        {
          "internalType": "address",
          "name": "",
          "type": "address"
        }
      ],
      "name": "votes",
      "outputs": [
        {
          "internalType": "uint256",
          "name": "",
          "type": "uint256"
        }
      ],
      "stateMutability": "view",
      "type": "function"
    }
  ],
  "bytecode": "0x60806040523480156200001157600080fd5b50604051620027c7380380620027c783398181016040528101906200003791906200016c565b336000806101000a81548173ffffffffffffffffffffffffffffffffffffffff021916908373ffffffffffffffffffffffffffffffffffffffff1602179055508160018190555080600260006101000a81548173ffffffffffffffffffffffffffffffffffffffff021916908373ffffffffffffffffffffffffffffffffffffffff1602179055505050620001b3565b600080fd5b6000819050919050565b620000e181620000cc565b8114620000ed57600080fd5b50565b6000815190506200010181620000d6565b92915050565b600073ffffffffffffffffffffffffffffffffffffffff82169050919050565b6000620001348262000107565b9050919050565b620001468162000127565b81146200015257600080fd5b50565b60008151905062000166816200013b565b92915050565b60008060408385031215620001865762000185620000c7565b5b60006200019685828601620000f0565b9250506020620001a98582860162000155565b9150509250929050565b61260480620001c36000396000f3fe608060405234801561001057600080fd5b50600436106101165760003560e01c80638da5cb5b116100a2578063d8bff5a511610071578063d8bff5a5146102e2578063eb95462514610312578063ed836bc314610330578063f36f4ff01461034f578063faaef9b81461036d57610116565b80638da5cb5b1461025a5780639346a95e14610278578063a3ec138d14610296578063d008426c146102c657610116565b80634704d8ec116100e95780634704d8ec146101a4578063523fc945146101d457806378fbaeac146102045780637ed177511461022057806385e8e7a71461023c57610116565b80630757ad011461011b5780630dc960151461014c578063257547b31461016a5780633efafb6e14610188575b600080fd5b61013560048036038101906101309190611913565b61039d565b604051610143929190611990565b60405180910390f35b6101546104fd565b6040516101619190611abf565b60405180910390f35b6101726107c6565b60405161017f9190611ae1565b60405180910390f35b6101a2600480360381019061019d9190611913565b6109d9565b005b6101be60048036038101906101b99190611b28565b610c60565b6040516101cb9190611ae1565b60405180910390f35b6101ee60048036038101906101e99190611913565b610c84565b6040516101fb9190611b64565b60405180910390f35b61021e60048036038101906102199190611d04565b610e4e565b005b61023a60048036038101906102359190611d4d565b6110ce565b005b610244611425565b6040516102519190611ae1565b60405180910390f35b61026261142b565b60405161026f9190611d7a565b60405180910390f35b61028061144f565b60405161028d9190611e44565b60405180910390f35b6102b060048036038101906102ab9190611d4d565b6114dd565b6040516102bd9190611e81565b60405180910390f35b6102e060048036038101906102db9190611f5f565b6114fd565b005b6102fc60048036038101906102f79190611d4d565b611629565b6040516103099190611b64565b60405180910390f35b61031a611641565b6040516103279190612066565b60405180910390f35b610338611699565b604051610346929190611990565b60405180910390f35b6103576116ca565b6040516103649190611d7a565b60405180910390f35b61038760048036038101906103829190611b28565b6116f0565b6040516103949190611d7a565b60405180910390f35b60008060008054906101000a900473ffffffffffffffffffffffffffffffffffffffff1673ffffffffffffffffffffffffffffffffffffffff163373ffffffffffffffffffffffffffffffffffffffff1614806104475750600260009054906101000a900473ffffffffffffffffffffffffffffffffffffffff1673ffffffffffffffffffffffffffffffffffffffff163373ffffffffffffffffffffffffffffffffffffffff16145b610486576040517f08c379a000000000000000000000000000000000000000000000000000000000815260040161047d906120e5565b60405180910390fd5b8260018190555033600260006101000a81548173ffffffffffffffffffffffffffffffffffffffff021916908373ffffffffffffffffffffffffffffffffffffffff160217905550600154600260009054906101000a900473ffffffffffffffffffffffffffffffffffffffff1691509150915091565b60606000805b6006805490508110156105c85760011515600360006006848154811061052c5761052b612105565b5b9060005260206000200160009054906101000a900473ffffffffffffffffffffffffffffffffffffffff1673ffffffffffffffffffffffffffffffffffffffff1673ffffffffffffffffffffffffffffffffffffffff16815260200190815260200160002060009054906101000a900460ff161515036105b55781806105b190612163565b9250505b80806105c090612163565b915050610503565b5060008167ffffffffffffffff8111156105e5576105e4611b95565b5b60405190808252806020026020018201604052801561061e57816020015b61060b61187c565b8152602001906001900390816106035790505b5090506000805b6006805490508110156107bc5760011515600360006006848154811061064e5761064d612105565b5b9060005260206000200160009054906101000a900473ffffffffffffffffffffffffffffffffffffffff1673ffffffffffffffffffffffffffffffffffffffff1673ffffffffffffffffffffffffffffffffffffffff16815260200190815260200160002060009054906101000a900460ff161515036107a9576000600682815481106106de576106dd612105565b5b9060005260206000200160009054906101000a900473ffffffffffffffffffffffffffffffffffffffff1690506000600460008373ffffffffffffffffffffffffffffffffffffffff1673ffffffffffffffffffffffffffffffffffffffff16815260200190815260200160002054905060405180604001604052808373ffffffffffffffffffffffffffffffffffffffff1681526020018281525085858151811061078d5761078c612105565b5b602002602001018190525083806107a390612163565b94505050505b80806107b490612163565b915050610625565b5081935050505090565b60008060058054905067ffffffffffffffff8111156107e8576107e7611b95565b5b60405190808252806020026020018201604052801561082157816020015b61080e6118ac565b8152602001906001900390816108065790505b5090506000805b6005805490508110156108d95760006005828154811061084b5761084a612105565b5b9060005260206000200154905060006108816005848154811061087157610870612105565b5b9060005260206000200154610c84565b90506040518060400160405280838152602001828152508585815181106108ab576108aa612105565b5b602002602001018190525083806108c190612163565b945050505080806108d190612163565b915050610828565b506000806000805b855181101561099957828682815181106108fe576108fd612105565b5b602002602001015160200151111561095b5785818151811061092357610922612105565b5b602002602001015160200151925085818151811061094457610943612105565b5b602002602001015160000151935060009150610986565b8286828151811061096f5761096e612105565b5b6020026020010151602001510361098557600191505b5b808061099190612163565b9150506108e1565b5080156109cd577f546965206265747765656e20746f7020766f7465206f7074696f6e7300000000955050505050506109d6565b82955050505050505b90565b600360003373ffffffffffffffffffffffffffffffffffffffff1673ffffffffffffffffffffffffffffffffffffffff16815260200190815260200160002060009054906101000a900460ff16610a65576040517f08c379a0000000000000000000000000000000000000000000000000000000008152600401610a5c906121f7565b60405180910390fd5b6000600460003373ffffffffffffffffffffffffffffffffffffffff1673ffffffffffffffffffffffffffffffffffffffff1681526020019081526020016000205414610ae7576040517f08c379a0000000000000000000000000000000000000000000000000000000008152600401610ade90612263565b60405180910390fd5b73__$de54dc1c421adc6f0c4b61e1985e2a322a$__63934fc0a16005836040518363ffffffff1660e01b8152600401610b219291906123a0565b60006040518083038186803b158015610b3957600080fd5b505af4158015610b4d573d6000803e3d6000fd5b50505050600073__$de54dc1c421adc6f0c4b61e1985e2a322a$__634c538c096005846040518363ffffffff1660e01b8152600401610b8d9291906123a0565b602060405180830381865af4158015610baa573d6000803e3d6000fd5b505050506040513d601f19601f82011682018060405250810190610bce9190612409565b60ff169050600181610be09190612436565b600460003373ffffffffffffffffffffffffffffffffffffffff1673ffffffffffffffffffffffffffffffffffffffff168152602001908152602001600020819055507ff4b7aab1c8e15149749c8399aba797e078e2caa0a35510c6424240e0d985f7423383604051610c5492919061246a565b60405180910390a15050565b60058181548110610c7057600080fd5b906000526020600020016000915090505481565b600073__$de54dc1c421adc6f0c4b61e1985e2a322a$__63934fc0a16005846040518363ffffffff1660e01b8152600401610cc09291906123a0565b60006040518083038186803b158015610cd857600080fd5b505af4158015610cec573d6000803e3d6000fd5b50505050600073__$de54dc1c421adc6f0c4b61e1985e2a322a$__634c538c096005856040518363ffffffff1660e01b8152600401610d2c9291906123a0565b602060405180830381865af4158015610d49573d6000803e3d6000fd5b505050506040513d601f19601f82011682018060405250810190610d6d9190612409565b60ff169050600181610d7f9190612436565b506000805b600680549050811015610e4357600183610d9e9190612436565b6004600060068481548110610db657610db5612105565b5b9060005260206000200160009054906101000a900473ffffffffffffffffffffffffffffffffffffffff1673ffffffffffffffffffffffffffffffffffffffff1673ffffffffffffffffffffffffffffffffffffffff1681526020019081526020016000205403610e30578180610e2c90612163565b9250505b8080610e3b90612163565b915050610d84565b508092505050919050565b60008054906101000a900473ffffffffffffffffffffffffffffffffffffffff1673ffffffffffffffffffffffffffffffffffffffff163373ffffffffffffffffffffffffffffffffffffffff161480610ef55750600260009054906101000a900473ffffffffffffffffffffffffffffffffffffffff1673ffffffffffffffffffffffffffffffffffffffff163373ffffffffffffffffffffffffffffffffffffffff16145b610f34576040517f08c379a0000000000000000000000000000000000000000000000000000000008152600401610f2b906120e5565b60405180910390fd5b60005b81518110156110935760036000838381518110610f5757610f56612105565b5b602002602001015173ffffffffffffffffffffffffffffffffffffffff1673ffffffffffffffffffffffffffffffffffffffff16815260200190815260200160002060009054906101000a900460ff1661104557600160036000848481518110610fc457610fc3612105565b5b602002602001015173ffffffffffffffffffffffffffffffffffffffff1673ffffffffffffffffffffffffffffffffffffffff16815260200190815260200160002060006101000a81548160ff02191690831515021790555061104082828151811061103357611032612105565b5b602002602001015161172f565b611080565b6040517f08c379a0000000000000000000000000000000000000000000000000000000008152600401611077906124df565b60405180910390fd5b808061108b90612163565b915050610f37565b507fa23088639b8870418f6efa6c948c63361f430f913c5343d271e0ee29f60aaa2a816040516110c39190611e44565b60405180910390a150565b60008054906101000a900473ffffffffffffffffffffffffffffffffffffffff1673ffffffffffffffffffffffffffffffffffffffff163373ffffffffffffffffffffffffffffffffffffffff1614806111755750600260009054906101000a900473ffffffffffffffffffffffffffffffffffffffff1673ffffffffffffffffffffffffffffffffffffffff163373ffffffffffffffffffffffffffffffffffffffff16145b6111b4576040517f08c379a00000000000000000000000000000000000000000000000000000000081526004016111ab906120e5565b60405180910390fd5b600360008273ffffffffffffffffffffffffffffffffffffffff1673ffffffffffffffffffffffffffffffffffffffff16815260200190815260200160002060009054906101000a900460ff1661120a57600080fd5b6000600360008373ffffffffffffffffffffffffffffffffffffffff1673ffffffffffffffffffffffffffffffffffffffff16815260200190815260200160002060006101000a81548160ff02191690831515021790555060005b6006805490508110156113ea578173ffffffffffffffffffffffffffffffffffffffff166006828154811061129d5761129c612105565b5b9060005260206000200160009054906101000a900473ffffffffffffffffffffffffffffffffffffffff1673ffffffffffffffffffffffffffffffffffffffff16036113d757600660016006805490506112f791906124ff565b8154811061130857611307612105565b5b9060005260206000200160009054906101000a900473ffffffffffffffffffffffffffffffffffffffff166006828154811061134757611346612105565b5b9060005260206000200160006101000a81548173ffffffffffffffffffffffffffffffffffffffff021916908373ffffffffffffffffffffffffffffffffffffffff16021790555060068054806113a1576113a0612533565b5b6001900381819060005260206000200160006101000a81549073ffffffffffffffffffffffffffffffffffffffff021916905590555b80806113e290612163565b915050611265565b507feb73c070e497672efd6ec8d28c7d42094c17cf80d13d9dab4766e5b97017a6f48160405161141a9190611d7a565b60405180910390a150565b60015481565b60008054906101000a900473ffffffffffffffffffffffffffffffffffffffff1681565b606060068054806020026020016040519081016040528092919081815260200182805480156114d357602002820191906000526020600020905b8160009054906101000a900473ffffffffffffffffffffffffffffffffffffffff1673ffffffffffffffffffffffffffffffffffffffff1681526020019060010190808311611489575b5050505050905090565b60036020528060005260406000206000915054906101000a900460ff1681565b60008054906101000a900473ffffffffffffffffffffffffffffffffffffffff1673ffffffffffffffffffffffffffffffffffffffff163373ffffffffffffffffffffffffffffffffffffffff1614806115a45750600260009054906101000a900473ffffffffffffffffffffffffffffffffffffffff1673ffffffffffffffffffffffffffffffffffffffff163373ffffffffffffffffffffffffffffffffffffffff16145b6115e3576040517f08c379a00000000000000000000000000000000000000000000000000000000081526004016115da906120e5565b60405180910390fd5b60005b81518110156116255761161282828151811061160557611604612105565b5b6020026020010151611795565b808061161d90612163565b9150506115e6565b5050565b60046020528060005260406000206000915090505481565b6060600580548060200260200160405190810160405280929190818152602001828054801561168f57602002820191906000526020600020905b81548152602001906001019080831161167b575b5050505050905090565b600080600154600260009054906101000a900473ffffffffffffffffffffffffffffffffffffffff16915091509091565b600260009054906101000a900473ffffffffffffffffffffffffffffffffffffffff1681565b6006818154811061170057600080fd5b906000526020600020016000915054906101000a900473ffffffffffffffffffffffffffffffffffffffff1681565b6006819080600181540180825580915050600190039060005260206000200160009091909190916101000a81548173ffffffffffffffffffffffffffffffffffffffff021916908373ffffffffffffffffffffffffffffffffffffffff16021790555050565b60005b6005805490508110156118185781600582815481106117ba576117b9612105565b5b906000526020600020015403611805576040517f08c379a00000000000000000000000000000000000000000000000000000000081526004016117fc906125ae565b60405180910390fd5b808061181090612163565b915050611798565b5060058190806001815401808255809150506001900390600052602060002001600090919091909150557fcc50179f97952c8701ac18fe314dd07ed718967ff75bf2d22230a450d619e065816040516118719190611ae1565b60405180910390a150565b6040518060400160405280600073ffffffffffffffffffffffffffffffffffffffff168152602001600081525090565b604051806040016040528060008019168152602001600081525090565b6000604051905090565b600080fd5b600080fd5b6000819050919050565b6118f0816118dd565b81146118fb57600080fd5b50565b60008135905061190d816118e7565b92915050565b600060208284031215611929576119286118d3565b5b6000611937848285016118fe565b91505092915050565b611949816118dd565b82525050565b600073ffffffffffffffffffffffffffffffffffffffff82169050919050565b600061197a8261194f565b9050919050565b61198a8161196f565b82525050565b60006040820190506119a56000830185611940565b6119b26020830184611981565b9392505050565b600081519050919050565b600082825260208201905092915050565b6000819050602082019050919050565b6119ee8161196f565b82525050565b6000819050919050565b611a07816119f4565b82525050565b604082016000820151611a2360008501826119e5565b506020820151611a3660208501826119fe565b50505050565b6000611a488383611a0d565b60408301905092915050565b6000602082019050919050565b6000611a6c826119b9565b611a7681856119c4565b9350611a81836119d5565b8060005b83811015611ab2578151611a998882611a3c565b9750611aa483611a54565b925050600181019050611a85565b5085935050505092915050565b60006020820190508181036000830152611ad98184611a61565b905092915050565b6000602082019050611af66000830184611940565b92915050565b611b05816119f4565b8114611b1057600080fd5b50565b600081359050611b2281611afc565b92915050565b600060208284031215611b3e57611b3d6118d3565b5b6000611b4c84828501611b13565b91505092915050565b611b5e816119f4565b82525050565b6000602082019050611b796000830184611b55565b92915050565b600080fd5b6000601f19601f8301169050919050565b7f4e487b7100000000000000000000000000000000000000000000000000000000600052604160045260246000fd5b611bcd82611b84565b810181811067ffffffffffffffff82111715611bec57611beb611b95565b5b80604052505050565b6000611bff6118c9565b9050611c0b8282611bc4565b919050565b600067ffffffffffffffff821115611c2b57611c2a611b95565b5b602082029050602081019050919050565b600080fd5b611c4a8161196f565b8114611c5557600080fd5b50565b600081359050611c6781611c41565b92915050565b6000611c80611c7b84611c10565b611bf5565b90508083825260208201905060208402830185811115611ca357611ca2611c3c565b5b835b81811015611ccc5780611cb88882611c58565b845260208401935050602081019050611ca5565b5050509392505050565b600082601f830112611ceb57611cea611b7f565b5b8135611cfb848260208601611c6d565b91505092915050565b600060208284031215611d1a57611d196118d3565b5b600082013567ffffffffffffffff811115611d3857611d376118d8565b5b611d4484828501611cd6565b91505092915050565b600060208284031215611d6357611d626118d3565b5b6000611d7184828501611c58565b91505092915050565b6000602082019050611d8f6000830184611981565b92915050565b600081519050919050565b600082825260208201905092915050565b6000819050602082019050919050565b6000611dcd83836119e5565b60208301905092915050565b6000602082019050919050565b6000611df182611d95565b611dfb8185611da0565b9350611e0683611db1565b8060005b83811015611e37578151611e1e8882611dc1565b9750611e2983611dd9565b925050600181019050611e0a565b5085935050505092915050565b60006020820190508181036000830152611e5e8184611de6565b905092915050565b60008115159050919050565b611e7b81611e66565b82525050565b6000602082019050611e966000830184611e72565b92915050565b600067ffffffffffffffff821115611eb757611eb6611b95565b5b602082029050602081019050919050565b6000611edb611ed684611e9c565b611bf5565b90508083825260208201905060208402830185811115611efe57611efd611c3c565b5b835b81811015611f275780611f1388826118fe565b845260208401935050602081019050611f00565b5050509392505050565b600082601f830112611f4657611f45611b7f565b5b8135611f56848260208601611ec8565b91505092915050565b600060208284031215611f7557611f746118d3565b5b600082013567ffffffffffffffff811115611f9357611f926118d8565b5b611f9f84828501611f31565b91505092915050565b600081519050919050565b600082825260208201905092915050565b6000819050602082019050919050565b611fdd816118dd565b82525050565b6000611fef8383611fd4565b60208301905092915050565b6000602082019050919050565b600061201382611fa8565b61201d8185611fb3565b935061202883611fc4565b8060005b838110156120595781516120408882611fe3565b975061204b83611ffb565b92505060018101905061202c565b5085935050505092915050565b600060208201905081810360008301526120808184612008565b905092915050565b600082825260208201905092915050565b7f43616c6c6572206973206e6f7420617574686f72697a65642e00000000000000600082015250565b60006120cf601983612088565b91506120da82612099565b602082019050919050565b600060208201905081810360008301526120fe816120c2565b9050919050565b7f4e487b7100000000000000000000000000000000000000000000000000000000600052603260045260246000fd5b7f4e487b7100000000000000000000000000000000000000000000000000000000600052601160045260246000fd5b600061216e826119f4565b91507fffffffffffffffffffffffffffffffffffffffffffffffffffffffffffffffff82036121a05761219f612134565b5b600182019050919050565b7f766f746572206973206e6f7420726567697374657265642e0000000000000000600082015250565b60006121e1601883612088565b91506121ec826121ab565b602082019050919050565b60006020820190508181036000830152612210816121d4565b9050919050565b7f20566f7465722068617320616c726561647920766f7465642e00000000000000600082015250565b600061224d601983612088565b915061225882612217565b602082019050919050565b6000602082019050818103600083015261227c81612240565b9050919050565b600081549050919050565b600082825260208201905092915050565b60008190508160005260206000209050919050565b6122bd816118dd565b82525050565b60006122cf83836122b4565b60208301905092915050565b60008160001c9050919050565b6000819050919050565b6000612305612300836122db565b6122e8565b9050919050565b600061231882546122f2565b9050919050565b6000600182019050919050565b600061233782612283565b612341818561228e565b935061234c8361229f565b8060005b83811015612384576123618261230c565b61236b88826122c3565b97506123768361231f565b925050600181019050612350565b5085935050505092915050565b61239a816118dd565b82525050565b600060408201905081810360008301526123ba818561232c565b90506123c96020830184612391565b9392505050565b600060ff82169050919050565b6123e6816123d0565b81146123f157600080fd5b50565b600081519050612403816123dd565b92915050565b60006020828403121561241f5761241e6118d3565b5b600061242d848285016123f4565b91505092915050565b6000612441826119f4565b915061244c836119f4565b925082820190508082111561246457612463612134565b5b92915050565b600060408201905061247f6000830185611981565b61248c6020830184611940565b9392505050565b7f566f74657220616c726561647920726567697374657265640000000000000000600082015250565b60006124c9601883612088565b91506124d482612493565b602082019050919050565b600060208201905081810360008301526124f8816124bc565b9050919050565b600061250a826119f4565b9150612515836119f4565b925082820390508181111561252d5761252c612134565b5b92915050565b7f4e487b7100000000000000000000000000000000000000000000000000000000600052603160045260246000fd5b7f4f7074696f6e20616c7265616479206578697374732e00000000000000000000600082015250565b6000612598601683612088565b91506125a382612562565b602082019050919050565b600060208201905081810360008301526125c78161258b565b905091905056fea264697066735822122072a9f4e3a29d426d402e4d97cb0dbaaf08713bdc2440809f6bd8e7e70cbb0d0064736f6c63430008110033",
  "linkReferences": {
    "contracts/checker.sol": {
      "checker": [
        {
          "length": 20,
          "start": 3244
        },
        {
          "length": 20,
          "start": 3352
        },
        {
          "length": 20,
          "start": 3659
        },
        {
          "length": 20,
          "start": 3767
        }
      ]
    }
  },
  "deployedLinkReferences": {
    "contracts/checker.sol": {
      "checker": [
        {
          "length": 20,
          "start": 2793
        },
        {
          "length": 20,
          "start": 2901
        },
        {
          "length": 20,
          "start": 3208
        },
        {
          "length": 20,
          "start": 3316
        }
      ]
    }
  }
}