{
  "_format": "hh-sol-artifact-1",
  "contractName": "checker",
  "sourceName": "contracts/checker.sol",
  "abi": [
    {
      "inputs": [
        {
          "internalType": "bytes32[]",
          "name": "voteOptions",
          "type": "bytes32[]"
        },
        {
          "internalType": "bytes32",
          "name": "option",
          "type": "bytes32"
        }
      ],
      "name": "getOptionIndex",
      "outputs": [
        {
          "internalType": "uint8",
          "name": "",
          "type": "uint8"
        }
      ],
      "stateMutability": "pure",
      "type": "function"
    },
    {
      "inputs": [
        {
          "internalType": "bytes32[]",
          "name": "voteOptions",
          "type": "bytes32[]"
        },
        {
          "internalType": "bytes32",
          "name": "option",
          "type": "bytes32"
        }
      ],
      "name": "isValidOption",
      "outputs": [],
      "stateMutability": "pure",
      "type": "function"
    }
  ],
  "bytecode": "0x610604610053600b82828239805160001a607314610046577f4e487b7100000000000000000000000000000000000000000000000000000000600052600060045260246000fd5b30600052607381538281f3fe73000000000000000000000000000000000000000030146080604052600436106100405760003560e01c80634c538c0914610045578063934fc0a114610075575b600080fd5b61005f600480360381019061005a9190610379565b610091565b60405161006c91906103f1565b60405180910390f35b61008f600480360381019061008a9190610379565b610127565b005b600080600090505b83518160ff1610156100e55782848260ff16815181106100bc576100bb61040c565b5b6020026020010151036100d25780915050610121565b80806100dd9061046a565b915050610099565b506040517f08c379a0000000000000000000000000000000000000000000000000000000008152600401610118906104f0565b60405180910390fd5b92915050565b600080600090505b8351811015610174578284828151811061014c5761014b61040c565b5b60200260200101510361016157809150610174565b808061016c9061051a565b91505061012f565b50818382815181106101895761018861040c565b5b6020026020010151146101d1576040517f08c379a00000000000000000000000000000000000000000000000000000000081526004016101c8906105ae565b60405180910390fd5b505050565b6000604051905090565b600080fd5b600080fd5b600080fd5b6000601f19601f8301169050919050565b7f4e487b7100000000000000000000000000000000000000000000000000000000600052604160045260246000fd5b610238826101ef565b810181811067ffffffffffffffff8211171561025757610256610200565b5b80604052505050565b600061026a6101d6565b9050610276828261022f565b919050565b600067ffffffffffffffff82111561029657610295610200565b5b602082029050602081019050919050565b600080fd5b6000819050919050565b6102bf816102ac565b81146102ca57600080fd5b50565b6000813590506102dc816102b6565b92915050565b60006102f56102f08461027b565b610260565b90508083825260208201905060208402830185811115610318576103176102a7565b5b835b81811015610341578061032d88826102cd565b84526020840193505060208101905061031a565b5050509392505050565b600082601f8301126103605761035f6101ea565b5b81356103708482602086016102e2565b91505092915050565b600080604083850312156103905761038f6101e0565b5b600083013567ffffffffffffffff8111156103ae576103ad6101e5565b5b6103ba8582860161034b565b92505060206103cb858286016102cd565b9150509250929050565b600060ff82169050919050565b6103eb816103d5565b82525050565b600060208201905061040660008301846103e2565b92915050565b7f4e487b7100000000000000000000000000000000000000000000000000000000600052603260045260246000fd5b7f4e487b7100000000000000000000000000000000000000000000000000000000600052601160045260246000fd5b6000610475826103d5565b915060ff82036104885761048761043b565b5b600182019050919050565b600082825260208201905092915050565b7f496e76616c696420766f7465206f7074696f6e2e000000000000000000000000600082015250565b60006104da601483610493565b91506104e5826104a4565b602082019050919050565b60006020820190508181036000830152610509816104cd565b9050919050565b6000819050919050565b600061052582610510565b91507fffffffffffffffffffffffffffffffffffffffffffffffffffffffffffffffff82036105575761055661043b565b5b600182019050919050565b7f4f7074696f6e206973206e6f742076616c696400000000000000000000000000600082015250565b6000610598601383610493565b91506105a382610562565b602082019050919050565b600060208201905081810360008301526105c78161058b565b905091905056fea26469706673582212207f2511f353b0053079750c097d29f22aff17aeabd5bc8bf548b176c2c06c0d6c64736f6c63430008110033",
  "linkReferences": {},
  "deployedLinkReferences": {}
}