{
  "_format": "hh-sol-artifact-1",
  "contractName": "checker",
  "sourceName": "contracts/checker.sol",
  "abi": [
    {
      "inputs": [
        {
          "internalType": "string[]",
          "name": "voteOptions",
          "type": "string[]"
        },
        {
          "internalType": "string",
          "name": "option",
          "type": "string"
        }
      ],
      "name": "getOptionIndex",
      "outputs": [
        {
          "internalType": "uint8",
          "name": "",
          "type": "uint8"
        }
      ],
      "stateMutability": "pure",
      "type": "function"
    },
    {
      "inputs": [
        {
          "internalType": "string[]",
          "name": "voteOptions",
          "type": "string[]"
        },
        {
          "internalType": "string",
          "name": "option",
          "type": "string"
        }
      ],
      "name": "isValidOption",
      "outputs": [],
      "stateMutability": "pure",
      "type": "function"
    }
  ],
  "bytecode": "0x610829610053600b82828239805160001a607314610046577f4e487b7100000000000000000000000000000000000000000000000000000000600052600060045260246000fd5b30600052607381538281f3fe73000000000000000000000000000000000000000030146080604052600436106100405760003560e01c8063348ed3c414610045578063fe5eb5f714610061575b600080fd5b61005f600480360381019061005a91906104fa565b610091565b005b61007b600480360381019061007691906104fa565b6101d8565b604051610088919061058e565b60405180910390f35b600080600090505b835181101561012a57826040516020016100b3919061061a565b604051602081830303815290604052805190602001208482815181106100dc576100db610631565b5b60200260200101516040516020016100f4919061061a565b60405160208183030381529060405280519060200120036101175780915061012a565b808061012290610699565b915050610099565b508160405160200161013c919061061a565b6040516020818303038152906040528051906020012083828151811061016557610164610631565b5b602002602001015160405160200161017d919061061a565b60405160208183030381529060405280519060200120146101d3576040517f08c379a00000000000000000000000000000000000000000000000000000000081526004016101ca9061073e565b60405180910390fd5b505050565b600080600090505b83518160ff16101561027857826040516020016101fd919061061a565b60405160208183030381529060405280519060200120848260ff168151811061022957610228610631565b5b6020026020010151604051602001610241919061061a565b604051602081830303815290604052805190602001200361026557809150506102b4565b80806102709061075e565b9150506101e0565b506040517f08c379a00000000000000000000000000000000000000000000000000000000081526004016102ab906107d3565b60405180910390fd5b92915050565b6000604051905090565b600080fd5b600080fd5b600080fd5b6000601f19601f8301169050919050565b7f4e487b7100000000000000000000000000000000000000000000000000000000600052604160045260246000fd5b61031c826102d3565b810181811067ffffffffffffffff8211171561033b5761033a6102e4565b5b80604052505050565b600061034e6102ba565b905061035a8282610313565b919050565b600067ffffffffffffffff82111561037a576103796102e4565b5b602082029050602081019050919050565b600080fd5b600080fd5b600067ffffffffffffffff8211156103b0576103af6102e4565b5b6103b9826102d3565b9050602081019050919050565b82818337600083830152505050565b60006103e86103e384610395565b610344565b90508281526020810184848401111561040457610403610390565b5b61040f8482856103c6565b509392505050565b600082601f83011261042c5761042b6102ce565b5b813561043c8482602086016103d5565b91505092915050565b60006104586104538461035f565b610344565b9050808382526020820190506020840283018581111561047b5761047a61038b565b5b835b818110156104c257803567ffffffffffffffff8111156104a05761049f6102ce565b5b8086016104ad8982610417565b8552602085019450505060208101905061047d565b5050509392505050565b600082601f8301126104e1576104e06102ce565b5b81356104f1848260208601610445565b91505092915050565b60008060408385031215610511576105106102c4565b5b600083013567ffffffffffffffff81111561052f5761052e6102c9565b5b61053b858286016104cc565b925050602083013567ffffffffffffffff81111561055c5761055b6102c9565b5b61056885828601610417565b9150509250929050565b600060ff82169050919050565b61058881610572565b82525050565b60006020820190506105a3600083018461057f565b92915050565b600081519050919050565b600081905092915050565b60005b838110156105dd5780820151818401526020810190506105c2565b60008484015250505050565b60006105f4826105a9565b6105fe81856105b4565b935061060e8185602086016105bf565b80840191505092915050565b600061062682846105e9565b915081905092915050565b7f4e487b7100000000000000000000000000000000000000000000000000000000600052603260045260246000fd5b7f4e487b7100000000000000000000000000000000000000000000000000000000600052601160045260246000fd5b6000819050919050565b60006106a48261068f565b91507fffffffffffffffffffffffffffffffffffffffffffffffffffffffffffffffff82036106d6576106d5610660565b5b600182019050919050565b600082825260208201905092915050565b7f4f7074696f6e206973206e6f742076616c696400000000000000000000000000600082015250565b60006107286013836106e1565b9150610733826106f2565b602082019050919050565b600060208201905081810360008301526107578161071b565b9050919050565b600061076982610572565b915060ff820361077c5761077b610660565b5b600182019050919050565b7f496e76616c696420766f7465206f7074696f6e2e000000000000000000000000600082015250565b60006107bd6014836106e1565b91506107c882610787565b602082019050919050565b600060208201905081810360008301526107ec816107b0565b905091905056fea2646970667358221220006911e7cbce8ef9ae01a446b907f37eacc67a46aab3fe5547a2fd362ffa666d64736f6c63430008110033",
  "linkReferences": {},
  "deployedLinkReferences": {}
}